{
  "contractName": "MarketFactory",
  "abi": [
    {
      "inputs": [],
      "stateMutability": "nonpayable",
      "type": "constructor"
    },
    {
      "inputs": [],
      "name": "EmptyQuestion",
      "type": "error"
    },
    {
      "inputs": [],
      "name": "NotApprovedCreator",
      "type": "error"
    },
    {
      "inputs": [],
      "name": "NotOwner",
      "type": "error"
    },
    {
      "inputs": [],
      "name": "ZeroAddress",
      "type": "error"
    },
    {
      "anonymous": false,
      "inputs": [
        {
          "indexed": true,
          "internalType": "address",
          "name": "creator",
          "type": "address"
        },
        {
          "indexed": false,
          "internalType": "bool",
          "name": "approved",
          "type": "bool"
        }
      ],
      "name": "CreatorApprovalChanged",
      "type": "event"
    },
    {
      "anonymous": false,
      "inputs": [
        {
          "indexed": true,
          "internalType": "address",
          "name": "market",
          "type": "address"
        },
        {
          "indexed": true,
          "internalType": "address",
          "name": "creator",
          "type": "address"
        },
        {
          "indexed": true,
          "internalType": "address",
          "name": "resolver",
          "type": "address"
        },
        {
          "indexed": false,
          "internalType": "address",
          "name": "feeRecipient",
          "type": "address"
        },
        {
          "indexed": false,
          "internalType": "bytes32",
          "name": "questionId",
          "type": "bytes32"
        },
        {
          "indexed": false,
          "internalType": "string",
          "name": "question",
          "type": "string"
        },
        {
          "indexed": false,
          "internalType": "uint256",
          "name": "closeTime",
          "type": "uint256"
        }
      ],
      "name": "MarketCreated",
      "type": "event"
    },
    {
      "inputs": [
        {
          "internalType": "address",
          "name": "",
          "type": "address"
        }
      ],
      "name": "approvedCreator",
      "outputs": [
        {
          "internalType": "bool",
          "name": "",
          "type": "bool"
        }
      ],
      "stateMutability": "view",
      "type": "function",
      "constant": true
    },
    {
      "inputs": [
        {
          "internalType": "uint256",
          "name": "",
          "type": "uint256"
        }
      ],
      "name": "markets",
      "outputs": [
        {
          "internalType": "address",
          "name": "",
          "type": "address"
        }
      ],
      "stateMutability": "view",
      "type": "function",
      "constant": true
    },
    {
      "inputs": [],
      "name": "owner",
      "outputs": [
        {
          "internalType": "address",
          "name": "",
          "type": "address"
        }
      ],
      "stateMutability": "view",
      "type": "function",
      "constant": true
    },
    {
      "inputs": [
        {
          "internalType": "address",
          "name": "creator",
          "type": "address"
        },
        {
          "internalType": "bool",
          "name": "approved",
          "type": "bool"
        }
      ],
      "name": "setApprovedCreator",
      "outputs": [],
      "stateMutability": "nonpayable",
      "type": "function"
    },
    {
      "inputs": [
        {
          "internalType": "string",
          "name": "question",
          "type": "string"
        },
        {
          "internalType": "uint256",
          "name": "closeTime",
          "type": "uint256"
        },
        {
          "internalType": "address",
          "name": "resolver",
          "type": "address"
        }
      ],
      "name": "createMarket",
      "outputs": [
        {
          "internalType": "address",
          "name": "market",
          "type": "address"
        }
      ],
      "stateMutability": "nonpayable",
      "type": "function"
    },
    {
      "inputs": [],
      "name": "marketsCount",
      "outputs": [
        {
          "internalType": "uint256",
          "name": "",
          "type": "uint256"
        }
      ],
      "stateMutability": "view",
      "type": "function",
      "constant": true
    }
  ],
  "bytecode": "0x608060405234801561001057600080fd5b50336000806101000a81548173ffffffffffffffffffffffffffffffffffffffff021916908373ffffffffffffffffffffffffffffffffffffffff16021790555060018060003373ffffffffffffffffffffffffffffffffffffffff1673ffffffffffffffffffffffffffffffffffffffff16815260200190815260200160002060006101000a81548160ff021916908315150217905550612cc9806100b76000396000f3fe60806040523480156200001157600080fd5b50600436106200006a5760003560e01c80631e8b5708146200006f578063542e23241462000091578063576cf9d014620000c7578063744d336c14620000fd5780638da5cb5b146200011d578063b1283e77146200013f575b600080fd5b6200007962000175565b604051620000889190620006d0565b60405180910390f35b620000af6004803603810190620000a991906200075c565b62000182565b604051620000be9190620007ab565b60405180910390f35b620000e56004803603810190620000df919062000867565b620001a2565b604051620000f49190620008f8565b60405180910390f35b6200011b600480360381019062000115919062000946565b620004ab565b005b6200012762000643565b604051620001369190620008f8565b60405180910390f35b6200015d60048036038101906200015791906200098d565b62000667565b6040516200016c9190620008f8565b60405180910390f35b6000600280549050905090565b60016020528060005260406000206000915054906101000a900460ff1681565b6000600160003373ffffffffffffffffffffffffffffffffffffffff1673ffffffffffffffffffffffffffffffffffffffff16815260200190815260200160002060009054906101000a900460ff1662000228576040517fcecc023a00000000000000000000000000000000000000000000000000000000815260040160405180910390fd5b600073ffffffffffffffffffffffffffffffffffffffff168273ffffffffffffffffffffffffffffffffffffffff16036200028f576040517fd92e233d00000000000000000000000000000000000000000000000000000000815260040160405180910390fd5b60008585905003620002cd576040517f0d5003f300000000000000000000000000000000000000000000000000000000815260040160405180910390fd5b42831162000312576040517f08c379a0000000000000000000000000000000000000000000000000000000008152600401620003099062000a20565b60405180910390fd5b60008585858560008054906101000a900473ffffffffffffffffffffffffffffffffffffffff166040516200034790620006a7565b6200035795949392919062000a95565b604051809103906000f08015801562000374573d6000803e3d6000fd5b5090508091506002829080600181540180825580915050600190039060005260206000200160009091909190916101000a81548173ffffffffffffffffffffffffffffffffffffffff021916908373ffffffffffffffffffffffffffffffffffffffff16021790555060008686604051620003f192919062000b1f565b604051809103902090508373ffffffffffffffffffffffffffffffffffffffff163373ffffffffffffffffffffffffffffffffffffffff168473ffffffffffffffffffffffffffffffffffffffff167f85c4d5a423ab0debf00a2a19372172a2eac3f9ab7e8a8ae35aa957409f0a5c6360008054906101000a900473ffffffffffffffffffffffffffffffffffffffff16858c8c8c6040516200049995949392919062000b55565b60405180910390a45050949350505050565b60008054906101000a900473ffffffffffffffffffffffffffffffffffffffff1673ffffffffffffffffffffffffffffffffffffffff163373ffffffffffffffffffffffffffffffffffffffff161462000531576040517f30cd747100000000000000000000000000000000000000000000000000000000815260040160405180910390fd5b600073ffffffffffffffffffffffffffffffffffffffff168273ffffffffffffffffffffffffffffffffffffffff160362000598576040517fd92e233d00000000000000000000000000000000000000000000000000000000815260040160405180910390fd5b80600160008473ffffffffffffffffffffffffffffffffffffffff1673ffffffffffffffffffffffffffffffffffffffff16815260200190815260200160002060006101000a81548160ff0219169083151502179055508173ffffffffffffffffffffffffffffffffffffffff167f126f54386bc4e8b7ea676b4362884ca31d2c4dff677e974636c4115f7d77087c82604051620006379190620007ab565b60405180910390a25050565b60008054906101000a900473ffffffffffffffffffffffffffffffffffffffff1681565b600281815481106200067857600080fd5b906000526020600020016000915054906101000a900473ffffffffffffffffffffffffffffffffffffffff1681565b6120e88062000bac83390190565b6000819050919050565b620006ca81620006b5565b82525050565b6000602082019050620006e76000830184620006bf565b92915050565b600080fd5b600080fd5b600073ffffffffffffffffffffffffffffffffffffffff82169050919050565b60006200072482620006f7565b9050919050565b620007368162000717565b81146200074257600080fd5b50565b60008135905062000756816200072b565b92915050565b600060208284031215620007755762000774620006ed565b5b6000620007858482850162000745565b91505092915050565b60008115159050919050565b620007a5816200078e565b82525050565b6000602082019050620007c260008301846200079a565b92915050565b600080fd5b600080fd5b600080fd5b60008083601f840112620007f057620007ef620007c8565b5b8235905067ffffffffffffffff81111562000810576200080f620007cd565b5b6020830191508360018202830111156200082f576200082e620007d2565b5b9250929050565b6200084181620006b5565b81146200084d57600080fd5b50565b600081359050620008618162000836565b92915050565b60008060008060608587031215620008845762000883620006ed565b5b600085013567ffffffffffffffff811115620008a557620008a4620006f2565b5b620008b387828801620007d7565b94509450506020620008c88782880162000850565b9250506040620008db8782880162000745565b91505092959194509250565b620008f28162000717565b82525050565b60006020820190506200090f6000830184620008e7565b92915050565b62000920816200078e565b81146200092c57600080fd5b50565b600081359050620009408162000915565b92915050565b6000806040838503121562000960576200095f620006ed565b5b6000620009708582860162000745565b925050602062000983858286016200092f565b9150509250929050565b600060208284031215620009a657620009a5620006ed565b5b6000620009b68482850162000850565b91505092915050565b600082825260208201905092915050565b7f636c6f736554696d653c3d6e6f77000000000000000000000000000000000000600082015250565b600062000a08600e83620009bf565b915062000a1582620009d0565b602082019050919050565b6000602082019050818103600083015262000a3b81620009f9565b9050919050565b82818337600083830152505050565b6000601f19601f8301169050919050565b600062000a708385620009bf565b935062000a7f83858462000a42565b62000a8a8362000a51565b840190509392505050565b6000608082019050818103600083015262000ab281878962000a62565b905062000ac36020830186620006bf565b62000ad26040830185620008e7565b62000ae16060830184620008e7565b9695505050505050565b600081905092915050565b600062000b04838562000aeb565b935062000b1383858462000a42565b82840190509392505050565b600062000b2e82848662000af6565b91508190509392505050565b6000819050919050565b62000b4f8162000b3a565b82525050565b600060808201905062000b6c6000830188620008e7565b62000b7b602083018762000b44565b818103604083015262000b9081858762000a62565b905062000ba16060830184620006bf565b969550505050505056fe6101206040523480156200001257600080fd5b50604051620020e8380380620020e883398181016040528101906200003891906200048a565b600073ffffffffffffffffffffffffffffffffffffffff168273ffffffffffffffffffffffffffffffffffffffff161480620000a05750600073ffffffffffffffffffffffffffffffffffffffff168173ffffffffffffffffffffffffffffffffffffffff16145b15620000d8576040517fd92e233d00000000000000000000000000000000000000000000000000000000815260040160405180910390fd5b600084510362000114576040517f0d5003f300000000000000000000000000000000000000000000000000000000815260040160405180910390fd5b42831162000159576040517f08c379a000000000000000000000000000000000000000000000000000000000815260040162000150906200057c565b60405180910390fd5b3373ffffffffffffffffffffffffffffffffffffffff1660808173ffffffffffffffffffffffffffffffffffffffff16815250508173ffffffffffffffffffffffffffffffffffffffff1660a08173ffffffffffffffffffffffffffffffffffffffff16815250508073ffffffffffffffffffffffffffffffffffffffff1660c08173ffffffffffffffffffffffffffffffffffffffff16815250508260e0818152505083600090816200020e9190620007df565b50838051906020012061010081815250506000600160006101000a81548160ff02191690836002811115620002485762000247620008c6565b5b021790555050505050620008f5565b6000604051905090565b600080fd5b600080fd5b600080fd5b600080fd5b6000601f19601f8301169050919050565b7f4e487b7100000000000000000000000000000000000000000000000000000000600052604160045260246000fd5b620002c08262000275565b810181811067ffffffffffffffff82111715620002e257620002e162000286565b5b80604052505050565b6000620002f762000257565b9050620003058282620002b5565b919050565b600067ffffffffffffffff82111562000328576200032762000286565b5b620003338262000275565b9050602081019050919050565b60005b838110156200036057808201518184015260208101905062000343565b60008484015250505050565b6000620003836200037d846200030a565b620002eb565b905082815260208101848484011115620003a257620003a162000270565b5b620003af84828562000340565b509392505050565b600082601f830112620003cf57620003ce6200026b565b5b8151620003e18482602086016200036c565b91505092915050565b6000819050919050565b620003ff81620003ea565b81146200040b57600080fd5b50565b6000815190506200041f81620003f4565b92915050565b600073ffffffffffffffffffffffffffffffffffffffff82169050919050565b6000620004528262000425565b9050919050565b620004648162000445565b81146200047057600080fd5b50565b600081519050620004848162000459565b92915050565b60008060008060808587031215620004a757620004a662000261565b5b600085015167ffffffffffffffff811115620004c857620004c762000266565b5b620004d687828801620003b7565b9450506020620004e9878288016200040e565b9350506040620004fc8782880162000473565b92505060606200050f8782880162000473565b91505092959194509250565b600082825260208201905092915050565b7f636c6f736554696d653c3d6e6f77000000000000000000000000000000000000600082015250565b600062000564600e836200051b565b915062000571826200052c565b602082019050919050565b60006020820190508181036000830152620005978162000555565b9050919050565b600081519050919050565b7f4e487b7100000000000000000000000000000000000000000000000000000000600052602260045260246000fd5b60006002820490506001821680620005f157607f821691505b602082108103620006075762000606620005a9565b5b50919050565b60008190508160005260206000209050919050565b60006020601f8301049050919050565b600082821b905092915050565b600060088302620006717fffffffffffffffffffffffffffffffffffffffffffffffffffffffffffffffff8262000632565b6200067d868362000632565b95508019841693508086168417925050509392505050565b6000819050919050565b6000620006c0620006ba620006b484620003ea565b62000695565b620003ea565b9050919050565b6000819050919050565b620006dc836200069f565b620006f4620006eb82620006c7565b8484546200063f565b825550505050565b600090565b6200070b620006fc565b62000718818484620006d1565b505050565b5b8181101562000740576200073460008262000701565b6001810190506200071e565b5050565b601f8211156200078f5762000759816200060d565b620007648462000622565b8101602085101562000774578190505b6200078c620007838562000622565b8301826200071d565b50505b505050565b600082821c905092915050565b6000620007b46000198460080262000794565b1980831691505092915050565b6000620007cf8383620007a1565b9150826002028217905092915050565b620007ea826200059e565b67ffffffffffffffff81111562000806576200080562000286565b5b620008128254620005d8565b6200081f82828562000744565b600060209050601f83116001811462000857576000841562000842578287015190505b6200084e8582620007c1565b865550620008be565b601f19841662000867866200060d565b60005b8281101562000891578489015182556001820191506020850194506020810190506200086a565b86831015620008b15784890151620008ad601f891682620007a1565b8355505b6001600288020188555050505b505050505050565b7f4e487b7100000000000000000000000000000000000000000000000000000000600052602160045260246000fd5b60805160a05160c05160e05161010051611792620009566000396000610cdd01526000818161061401528181610a3b0152610a770152600081816105ee015261067b0152600081816105110152610b3e015260006104ed01526117926000f3fe60806040526004361061012e5760003560e01c806388ba8dd6116100ab578063af0088831161006f578063af0088831461040c578063b06a5c5214610437578063be040fb014610462578063bf333f2c14610479578063c884ef83146104a4578063f170e018146104e15761016e565b806388ba8dd61461034657806394db0595146103715780639916a6121461039c578063a0270dbc146103a6578063a28d0a91146103cf5761016e565b806346904840116100f2578063469048401461029257806347535d7b146102bd578063476343ee146102e8578063604f2177146102ff578063627749e61461031b5761016e565b806302d05d3f146101a957806304f3bcec146101d457806327793f87146101ff5780633fad9ae01461022a578063426e1108146102555761016e565b3661016e576040517f08c379a0000000000000000000000000000000000000000000000000000000008152600401610165906111a5565b60405180910390fd5b6040517f08c379a00000000000000000000000000000000000000000000000000000000081526004016101a0906111a5565b60405180910390fd5b3480156101b557600080fd5b506101be6104eb565b6040516101cb9190611206565b60405180910390f35b3480156101e057600080fd5b506101e961050f565b6040516101f69190611206565b60405180910390f35b34801561020b57600080fd5b50610214610533565b6040516102219190611298565b60405180910390f35b34801561023657600080fd5b5061023f610546565b60405161024c9190611332565b60405180910390f35b34801561026157600080fd5b5061027c60048036038101906102779190611385565b6105d4565b60405161028991906113cb565b60405180910390f35b34801561029e57600080fd5b506102a76105ec565b6040516102b49190611206565b60405180910390f35b3480156102c957600080fd5b506102d2610610565b6040516102df9190611401565b60405180910390f35b3480156102f457600080fd5b506102fd610679565b005b61031960048036038101906103149190611441565b610768565b005b34801561032757600080fd5b50610330610a39565b60405161033d91906113cb565b60405180910390f35b34801561035257600080fd5b5061035b610a5d565b60405161036891906113cb565b60405180910390f35b34801561037d57600080fd5b50610386610a63565b60405161039391906113cb565b60405180910390f35b6103a4610a69565b005b3480156103b257600080fd5b506103cd60048036038101906103c89190611441565b610a75565b005b3480156103db57600080fd5b506103f660048036038101906103f19190611385565b610cbd565b60405161040391906113cb565b60405180910390f35b34801561041857600080fd5b50610421610cd5565b60405161042e91906113cb565b60405180910390f35b34801561044357600080fd5b5061044c610cdb565b6040516104599190611487565b60405180910390f35b34801561046e57600080fd5b50610477610cff565b005b34801561048557600080fd5b5061048e61105c565b60405161049b91906114bf565b60405180910390f35b3480156104b057600080fd5b506104cb60048036038101906104c69190611385565b611061565b6040516104d89190611401565b60405180910390f35b6104e9611081565b005b7f000000000000000000000000000000000000000000000000000000000000000081565b7f000000000000000000000000000000000000000000000000000000000000000081565b600160009054906101000a900460ff1681565b6000805461055390611509565b80601f016020809104026020016040519081016040528092919081815260200182805461057f90611509565b80156105cc5780601f106105a1576101008083540402835291602001916105cc565b820191906000526020600020905b8154815290600101906020018083116105af57829003601f168201915b505050505081565b60066020528060005260406000206000915090505481565b7f000000000000000000000000000000000000000000000000000000000000000081565b60007f0000000000000000000000000000000000000000000000000000000000000000421080156106745750600060028111156106505761064f611221565b5b600160009054906101000a900460ff16600281111561067257610671611221565b5b145b905090565b7f000000000000000000000000000000000000000000000000000000000000000073ffffffffffffffffffffffffffffffffffffffff163373ffffffffffffffffffffffffffffffffffffffff16146106fe576040517f75c4eb7400000000000000000000000000000000000000000000000000000000815260040160405180910390fd5b600060045490506000600481905550610717338261108d565b3373ffffffffffffffffffffffffffffffffffffffff167fc0819c13be868895eb93e40eaceb96de976442fa1d404e5c55f14bb65a8c489a8260405161075d91906113cb565b60405180910390a250565b610770610610565b6107a6576040517fc02d38cc00000000000000000000000000000000000000000000000000000000815260040160405180910390fd5b600160028111156107ba576107b9611221565b5b8160028111156107cd576107cc611221565b5b141580156107ff57506002808111156107e9576107e8611221565b5b8160028111156107fc576107fb611221565b5b14155b15610836576040517fc74a206d00000000000000000000000000000000000000000000000000000000815260040160405180910390fd5b60003403610870576040517fcbca5aa200000000000000000000000000000000000000000000000000000000815260040160405180910390fd5b600061271061ffff16603261ffff163461088a9190611569565b61089491906115da565b9050600081346108a4919061160b565b905081600460008282546108b8919061163f565b92505081905550600160028111156108d3576108d2611221565b5b8360028111156108e6576108e5611221565b5b0361095f5780600560003373ffffffffffffffffffffffffffffffffffffffff1673ffffffffffffffffffffffffffffffffffffffff168152602001908152602001600020600082825461093a919061163f565b925050819055508060026000828254610953919061163f565b925050819055506109cf565b80600660003373ffffffffffffffffffffffffffffffffffffffff1673ffffffffffffffffffffffffffffffffffffffff16815260200190815260200160002060008282546109ae919061163f565b9250508190555080600360008282546109c7919061163f565b925050819055505b8260028111156109e2576109e1611221565b5b3373ffffffffffffffffffffffffffffffffffffffff167fa54d2e3dac2ed7e395310cf189cc1c2e3527948ac1296e60db2c269c9138c115348585604051610a2c93929190611673565b60405180910390a3505050565b7f000000000000000000000000000000000000000000000000000000000000000081565b60025481565b60045481565b610a736001610768565b565b7f0000000000000000000000000000000000000000000000000000000000000000421015610acf576040517fa8a9eb6900000000000000000000000000000000000000000000000000000000815260040160405180910390fd5b60006002811115610ae357610ae2611221565b5b600160009054906101000a900460ff166002811115610b0557610b04611221565b5b14610b3c576040517f6d5703c200000000000000000000000000000000000000000000000000000000815260040160405180910390fd5b7f000000000000000000000000000000000000000000000000000000000000000073ffffffffffffffffffffffffffffffffffffffff163373ffffffffffffffffffffffffffffffffffffffff1614610bc1576040517fba2a9fc200000000000000000000000000000000000000000000000000000000815260040160405180910390fd5b60016002811115610bd557610bd4611221565b5b816002811115610be857610be7611221565b5b14158015610c1a5750600280811115610c0457610c03611221565b5b816002811115610c1757610c16611221565b5b14155b15610c51576040517fc74a206d00000000000000000000000000000000000000000000000000000000815260040160405180910390fd5b80600160006101000a81548160ff02191690836002811115610c7657610c75611221565b5b0217905550806002811115610c8e57610c8d611221565b5b7f5e186f09b9c93491f14e277eea7faa5de6a2d4bda75a79af7a3684fbfb42da6060405160405180910390a250565b60056020528060005260406000206000915090505481565b60035481565b7f000000000000000000000000000000000000000000000000000000000000000081565b60006002811115610d1357610d12611221565b5b600160009054906101000a900460ff166002811115610d3557610d34611221565b5b03610d6c576040517fa8a9eb6900000000000000000000000000000000000000000000000000000000815260040160405180910390fd5b600760003373ffffffffffffffffffffffffffffffffffffffff1673ffffffffffffffffffffffffffffffffffffffff16815260200190815260200160002060009054906101000a900460ff1615610df0576040517f646cf55800000000000000000000000000000000000000000000000000000000815260040160405180910390fd5b6000600560003373ffffffffffffffffffffffffffffffffffffffff1673ffffffffffffffffffffffffffffffffffffffff1681526020019081526020016000205490506000600660003373ffffffffffffffffffffffffffffffffffffffff1673ffffffffffffffffffffffffffffffffffffffff16815260200190815260200160002054905060008183610e86919061163f565b905060008103610ec2576040517f9890af6000000000000000000000000000000000000000000000000000000000815260040160405180910390fd5b6001600760003373ffffffffffffffffffffffffffffffffffffffff1673ffffffffffffffffffffffffffffffffffffffff16815260200190815260200160002060006101000a81548160ff0219169083151502179055506000600354600254610f2c919061163f565b9050600060016002811115610f4457610f43611221565b5b600160009054906101000a900460ff166002811115610f6657610f65611221565b5b14610f7357600354610f77565b6002545b90506000808203610f8a57839050610ffc565b600060016002811115610fa057610f9f611221565b5b600160009054906101000a900460ff166002811115610fc257610fc1611221565b5b14610fcd5785610fcf565b865b905060008114610ff557828482610fe69190611569565b610ff091906115da565b610ff8565b60005b9150505b611006338261108d565b3373ffffffffffffffffffffffffffffffffffffffff167f4896181ff8f4543cc00db9fe9b6fb7e6f032b7eb772c72ab1ec1b4d2e03b93698260405161104c91906113cb565b60405180910390a2505050505050565b603281565b60076020528060005260406000206000915054906101000a900460ff1681565b61108b6002610768565b565b60008103156111445760008273ffffffffffffffffffffffffffffffffffffffff16826040516110bc906116db565b60006040518083038185875af1925050503d80600081146110f9576040519150601f19603f3d011682016040523d82523d6000602084013e6110fe565b606091505b5050905080611142576040517f08c379a00000000000000000000000000000000000000000000000000000000081526004016111399061173c565b60405180910390fd5b505b5050565b600082825260208201905092915050565b7f757365207374616b652829000000000000000000000000000000000000000000600082015250565b600061118f600b83611148565b915061119a82611159565b602082019050919050565b600060208201905081810360008301526111be81611182565b9050919050565b600073ffffffffffffffffffffffffffffffffffffffff82169050919050565b60006111f0826111c5565b9050919050565b611200816111e5565b82525050565b600060208201905061121b60008301846111f7565b92915050565b7f4e487b7100000000000000000000000000000000000000000000000000000000600052602160045260246000fd5b6003811061126157611260611221565b5b50565b600081905061127282611250565b919050565b600061128282611264565b9050919050565b61129281611277565b82525050565b60006020820190506112ad6000830184611289565b92915050565b600081519050919050565b60005b838110156112dc5780820151818401526020810190506112c1565b60008484015250505050565b6000601f19601f8301169050919050565b6000611304826112b3565b61130e8185611148565b935061131e8185602086016112be565b611327816112e8565b840191505092915050565b6000602082019050818103600083015261134c81846112f9565b905092915050565b600080fd5b611362816111e5565b811461136d57600080fd5b50565b60008135905061137f81611359565b92915050565b60006020828403121561139b5761139a611354565b5b60006113a984828501611370565b91505092915050565b6000819050919050565b6113c5816113b2565b82525050565b60006020820190506113e060008301846113bc565b92915050565b60008115159050919050565b6113fb816113e6565b82525050565b600060208201905061141660008301846113f2565b92915050565b6003811061142957600080fd5b50565b60008135905061143b8161141c565b92915050565b60006020828403121561145757611456611354565b5b60006114658482850161142c565b91505092915050565b6000819050919050565b6114818161146e565b82525050565b600060208201905061149c6000830184611478565b92915050565b600061ffff82169050919050565b6114b9816114a2565b82525050565b60006020820190506114d460008301846114b0565b92915050565b7f4e487b7100000000000000000000000000000000000000000000000000000000600052602260045260246000fd5b6000600282049050600182168061152157607f821691505b602082108103611534576115336114da565b5b50919050565b7f4e487b7100000000000000000000000000000000000000000000000000000000600052601160045260246000fd5b6000611574826113b2565b915061157f836113b2565b925082820261158d816113b2565b915082820484148315176115a4576115a361153a565b5b5092915050565b7f4e487b7100000000000000000000000000000000000000000000000000000000600052601260045260246000fd5b60006115e5826113b2565b91506115f0836113b2565b925082611600576115ff6115ab565b5b828204905092915050565b6000611616826113b2565b9150611621836113b2565b92508282039050818111156116395761163861153a565b5b92915050565b600061164a826113b2565b9150611655836113b2565b925082820190508082111561166d5761166c61153a565b5b92915050565b600060608201905061168860008301866113bc565b61169560208301856113bc565b6116a260408301846113bc565b949350505050565b600081905092915050565b50565b60006116c56000836116aa565b91506116d0826116b5565b600082019050919050565b60006116e6826116b8565b9150819050919050565b7f455448207472616e73666572206661696c656400000000000000000000000000600082015250565b6000611726601383611148565b9150611731826116f0565b602082019050919050565b6000602082019050818103600083015261175581611719565b905091905056fea2646970667358221220f4051a8d97ac55f0a0084dbc28f0ff50ea1b12c01b3839122a91f92477c3b8f164736f6c63430008140033a2646970667358221220207b9670378950f90fe602e2a3b7c4ef8623b46b78f8892b60b06b6a5bf8bbd664736f6c63430008140033",
  "immutableReferences": {},
  "source": "// SPDX-License-Identifier: MIT\r\npragma solidity ^0.8.20;\r\n\r\nimport \"./PredictionMarket.sol\";\r\n\r\ncontract MarketFactory {\r\n    address public owner;\r\n    mapping(address => bool) public approvedCreator;\r\n    address[] public markets;\r\n\r\n    event CreatorApprovalChanged(address indexed creator, bool approved);\r\n    event MarketCreated(\n        address indexed market,\n        address indexed creator,\n        address indexed resolver,\n        address feeRecipient,\n        bytes32 questionId,\n        string question,\n        uint256 closeTime\n    );\n\n    error NotOwner();\n    error NotApprovedCreator();\n    error ZeroAddress();\n    error EmptyQuestion();\n\r\n    modifier onlyOwner() {\r\n        if (msg.sender != owner) revert NotOwner();\r\n        _;\r\n    }\r\n\r\n    constructor() {\r\n        owner = msg.sender;\r\n        approvedCreator[msg.sender] = true;\r\n    }\r\n\r\n    function setApprovedCreator(address creator, bool approved) external onlyOwner {\r\n        if (creator == address(0)) revert ZeroAddress();\r\n        approvedCreator[creator] = approved;\r\n        emit CreatorApprovalChanged(creator, approved);\r\n    }\r\n\r\n    function createMarket(string calldata question, uint256 closeTime, address resolver)\n        external\n        returns (address market)\n    {\n        if (!approvedCreator[msg.sender]) revert NotApprovedCreator();\n        if (resolver == address(0)) revert ZeroAddress();\n        if (bytes(question).length == 0) revert EmptyQuestion();\n        require(closeTime > block.timestamp, \"closeTime<=now\");\n\n        PredictionMarket m = new PredictionMarket(question, closeTime, resolver, owner);\n        market = address(m);\n\n        markets.push(market);\n        bytes32 questionId = keccak256(bytes(question));\n        emit MarketCreated(market, msg.sender, resolver, owner, questionId, question, closeTime);\n    }\n\r\n    function marketsCount() external view returns (uint256) {\r\n        return markets.length;\r\n    }\r\n}\r\n",
  "sourcePath": "C:\\Users\\marty\\Desktop\\univero nesamones\\BGT\\consensus\\contracts\\MarketFactory.sol",
  "compiler": {
    "name": "solc",
    "version": "0.8.20+commit.a1b79de6.Emscripten.clang"
  },
  "schemaVersion": "3.4.16",
  "updatedAt": "2025-12-17T15:50:49.123Z",
  "networkType": "ethereum",
  "devdoc": {
    "kind": "dev",
    "methods": {},
    "version": 1
  },
  "userdoc": {
    "kind": "user",
    "methods": {},
    "version": 1
  }
}