{
  "contractName": "MarketFactory",
  "abi": [
    {
      "inputs": [],
      "stateMutability": "nonpayable",
      "type": "constructor"
    },
    {
      "inputs": [],
      "name": "NotApprovedCreator",
      "type": "error"
    },
    {
      "inputs": [],
      "name": "NotOwner",
      "type": "error"
    },
    {
      "inputs": [],
      "name": "ZeroAddress",
      "type": "error"
    },
    {
      "anonymous": false,
      "inputs": [
        {
          "indexed": true,
          "internalType": "address",
          "name": "creator",
          "type": "address"
        },
        {
          "indexed": false,
          "internalType": "bool",
          "name": "approved",
          "type": "bool"
        }
      ],
      "name": "CreatorApprovalChanged",
      "type": "event"
    },
    {
      "anonymous": false,
      "inputs": [
        {
          "indexed": true,
          "internalType": "address",
          "name": "market",
          "type": "address"
        },
        {
          "indexed": true,
          "internalType": "address",
          "name": "creator",
          "type": "address"
        },
        {
          "indexed": true,
          "internalType": "address",
          "name": "resolver",
          "type": "address"
        },
        {
          "indexed": false,
          "internalType": "address",
          "name": "feeRecipient",
          "type": "address"
        },
        {
          "indexed": false,
          "internalType": "bytes32",
          "name": "questionId",
          "type": "bytes32"
        },
        {
          "indexed": false,
          "internalType": "uint256",
          "name": "closeTime",
          "type": "uint256"
        }
      ],
      "name": "MarketCreated",
      "type": "event"
    },
    {
      "inputs": [
        {
          "internalType": "address",
          "name": "",
          "type": "address"
        }
      ],
      "name": "approvedCreator",
      "outputs": [
        {
          "internalType": "bool",
          "name": "",
          "type": "bool"
        }
      ],
      "stateMutability": "view",
      "type": "function",
      "constant": true
    },
    {
      "inputs": [
        {
          "internalType": "uint256",
          "name": "",
          "type": "uint256"
        }
      ],
      "name": "markets",
      "outputs": [
        {
          "internalType": "address",
          "name": "",
          "type": "address"
        }
      ],
      "stateMutability": "view",
      "type": "function",
      "constant": true
    },
    {
      "inputs": [],
      "name": "owner",
      "outputs": [
        {
          "internalType": "address",
          "name": "",
          "type": "address"
        }
      ],
      "stateMutability": "view",
      "type": "function",
      "constant": true
    },
    {
      "inputs": [
        {
          "internalType": "address",
          "name": "creator",
          "type": "address"
        },
        {
          "internalType": "bool",
          "name": "approved",
          "type": "bool"
        }
      ],
      "name": "setApprovedCreator",
      "outputs": [],
      "stateMutability": "nonpayable",
      "type": "function"
    },
    {
      "inputs": [
        {
          "internalType": "bytes32",
          "name": "questionId",
          "type": "bytes32"
        },
        {
          "internalType": "uint256",
          "name": "closeTime",
          "type": "uint256"
        },
        {
          "internalType": "address",
          "name": "resolver",
          "type": "address"
        }
      ],
      "name": "createMarket",
      "outputs": [
        {
          "internalType": "address",
          "name": "market",
          "type": "address"
        }
      ],
      "stateMutability": "nonpayable",
      "type": "function"
    },
    {
      "inputs": [],
      "name": "marketsCount",
      "outputs": [
        {
          "internalType": "uint256",
          "name": "",
          "type": "uint256"
        }
      ],
      "stateMutability": "view",
      "type": "function",
      "constant": true
    }
  ],
  "bytecode": "0x608060405234801561001057600080fd5b50336000806101000a81548173ffffffffffffffffffffffffffffffffffffffff021916908373ffffffffffffffffffffffffffffffffffffffff16021790555060018060003373ffffffffffffffffffffffffffffffffffffffff1673ffffffffffffffffffffffffffffffffffffffff16815260200190815260200160002060006101000a81548160ff021916908315150217905550612479806100b76000396000f3fe60806040523480156200001157600080fd5b50600436106200006a5760003560e01c80631e8b5708146200006f578063542e23241462000091578063744d336c14620000c75780638da5cb5b14620000e7578063a8a377061462000109578063b1283e77146200013f575b600080fd5b6200007962000175565b6040516200008891906200066c565b60405180910390f35b620000af6004803603810190620000a99190620006f3565b62000182565b604051620000be919062000742565b60405180910390f35b620000e56004803603810190620000df919062000790565b620001a2565b005b620000f16200033a565b604051620001009190620007e8565b60405180910390f35b62000127600480360381019062000121919062000871565b6200035e565b604051620001369190620007e8565b60405180910390f35b6200015d6004803603810190620001579190620008cd565b62000603565b6040516200016c9190620007e8565b60405180910390f35b6000600280549050905090565b60016020528060005260406000206000915054906101000a900460ff1681565b60008054906101000a900473ffffffffffffffffffffffffffffffffffffffff1673ffffffffffffffffffffffffffffffffffffffff163373ffffffffffffffffffffffffffffffffffffffff161462000228576040517f30cd747100000000000000000000000000000000000000000000000000000000815260040160405180910390fd5b600073ffffffffffffffffffffffffffffffffffffffff168273ffffffffffffffffffffffffffffffffffffffff16036200028f576040517fd92e233d00000000000000000000000000000000000000000000000000000000815260040160405180910390fd5b80600160008473ffffffffffffffffffffffffffffffffffffffff1673ffffffffffffffffffffffffffffffffffffffff16815260200190815260200160002060006101000a81548160ff0219169083151502179055508173ffffffffffffffffffffffffffffffffffffffff167f126f54386bc4e8b7ea676b4362884ca31d2c4dff677e974636c4115f7d77087c826040516200032e919062000742565b60405180910390a25050565b60008054906101000a900473ffffffffffffffffffffffffffffffffffffffff1681565b6000600160003373ffffffffffffffffffffffffffffffffffffffff1673ffffffffffffffffffffffffffffffffffffffff16815260200190815260200160002060009054906101000a900460ff16620003e4576040517fcecc023a00000000000000000000000000000000000000000000000000000000815260040160405180910390fd5b600073ffffffffffffffffffffffffffffffffffffffff168273ffffffffffffffffffffffffffffffffffffffff16036200044b576040517fd92e233d00000000000000000000000000000000000000000000000000000000815260040160405180910390fd5b42831162000490576040517f08c379a0000000000000000000000000000000000000000000000000000000008152600401620004879062000960565b60405180910390fd5b600084848460008054906101000a900473ffffffffffffffffffffffffffffffffffffffff16604051620004c49062000643565b620004d3949392919062000993565b604051809103906000f080158015620004f0573d6000803e3d6000fd5b5090508091506002829080600181540180825580915050600190039060005260206000200160009091909190916101000a81548173ffffffffffffffffffffffffffffffffffffffff021916908373ffffffffffffffffffffffffffffffffffffffff1602179055508273ffffffffffffffffffffffffffffffffffffffff163373ffffffffffffffffffffffffffffffffffffffff168373ffffffffffffffffffffffffffffffffffffffff167fd9720d4b98554f80d4767c01330fe8816a18a1939897f79bf176bd0a73e8f55160008054906101000a900473ffffffffffffffffffffffffffffffffffffffff168989604051620005f393929190620009e0565b60405180910390a4509392505050565b600281815481106200061457600080fd5b906000526020600020016000915054906101000a900473ffffffffffffffffffffffffffffffffffffffff1681565b611a268062000a1e83390190565b6000819050919050565b620006668162000651565b82525050565b60006020820190506200068360008301846200065b565b92915050565b600080fd5b600073ffffffffffffffffffffffffffffffffffffffff82169050919050565b6000620006bb826200068e565b9050919050565b620006cd81620006ae565b8114620006d957600080fd5b50565b600081359050620006ed81620006c2565b92915050565b6000602082840312156200070c576200070b62000689565b5b60006200071c84828501620006dc565b91505092915050565b60008115159050919050565b6200073c8162000725565b82525050565b600060208201905062000759600083018462000731565b92915050565b6200076a8162000725565b81146200077657600080fd5b50565b6000813590506200078a816200075f565b92915050565b60008060408385031215620007aa57620007a962000689565b5b6000620007ba85828601620006dc565b9250506020620007cd8582860162000779565b9150509250929050565b620007e281620006ae565b82525050565b6000602082019050620007ff6000830184620007d7565b92915050565b6000819050919050565b6200081a8162000805565b81146200082657600080fd5b50565b6000813590506200083a816200080f565b92915050565b6200084b8162000651565b81146200085757600080fd5b50565b6000813590506200086b8162000840565b92915050565b6000806000606084860312156200088d576200088c62000689565b5b60006200089d8682870162000829565b9350506020620008b0868287016200085a565b9250506040620008c386828701620006dc565b9150509250925092565b600060208284031215620008e657620008e562000689565b5b6000620008f6848285016200085a565b91505092915050565b600082825260208201905092915050565b7f636c6f736554696d653c3d6e6f77000000000000000000000000000000000000600082015250565b600062000948600e83620008ff565b9150620009558262000910565b602082019050919050565b600060208201905081810360008301526200097b8162000939565b9050919050565b6200098d8162000805565b82525050565b6000608082019050620009aa600083018762000982565b620009b960208301866200065b565b620009c86040830185620007d7565b620009d76060830184620007d7565b95945050505050565b6000606082019050620009f76000830186620007d7565b62000a06602083018562000982565b62000a1560408301846200065b565b94935050505056fe6101206040523480156200001257600080fd5b5060405162001a2638038062001a268339818101604052810190620000389190620002e1565b600073ffffffffffffffffffffffffffffffffffffffff168273ffffffffffffffffffffffffffffffffffffffff161480620000a05750600073ffffffffffffffffffffffffffffffffffffffff168173ffffffffffffffffffffffffffffffffffffffff16145b15620000d8576040517fd92e233d00000000000000000000000000000000000000000000000000000000815260040160405180910390fd5b4283116200011d576040517f08c379a00000000000000000000000000000000000000000000000000000000081526004016200011490620003b4565b60405180910390fd5b3373ffffffffffffffffffffffffffffffffffffffff1660808173ffffffffffffffffffffffffffffffffffffffff16815250508173ffffffffffffffffffffffffffffffffffffffff1660a08173ffffffffffffffffffffffffffffffffffffffff16815250508073ffffffffffffffffffffffffffffffffffffffff1660c08173ffffffffffffffffffffffffffffffffffffffff16815250508260e0818152505083610100818152505060008060006101000a81548160ff02191690836002811115620001f257620001f1620003d6565b5b02179055505050505062000405565b600080fd5b6000819050919050565b6200021b8162000206565b81146200022757600080fd5b50565b6000815190506200023b8162000210565b92915050565b6000819050919050565b620002568162000241565b81146200026257600080fd5b50565b60008151905062000276816200024b565b92915050565b600073ffffffffffffffffffffffffffffffffffffffff82169050919050565b6000620002a9826200027c565b9050919050565b620002bb816200029c565b8114620002c757600080fd5b50565b600081519050620002db81620002b0565b92915050565b60008060008060808587031215620002fe57620002fd62000201565b5b60006200030e878288016200022a565b9450506020620003218782880162000265565b93505060406200033487828801620002ca565b92505060606200034787828801620002ca565b91505092959194509250565b600082825260208201905092915050565b7f636c6f736554696d653c3d6e6f77000000000000000000000000000000000000600082015250565b60006200039c600e8362000353565b9150620003a98262000364565b602082019050919050565b60006020820190508181036000830152620003cf816200038d565b9050919050565b7f4e487b7100000000000000000000000000000000000000000000000000000000600052602160045260246000fd5b60805160a05160c05160e051610100516115c0620004666000396000610c1201526000818161054e0152818161097301526109af01526000818161052801526105b30152600081816104db0152610a74015260006104b701526115c06000f3fe6080604052600436106101235760003560e01c806394db0595116100a0578063b06a5c5211610064578063b06a5c5214610401578063be040fb01461042c578063bf333f2c14610443578063c884ef831461046e578063f170e018146104ab57610163565b806394db05951461033b5780639916a61214610366578063a0270dbc14610370578063a28d0a9114610399578063af008883146103d657610163565b806347535d7b116100e757806347535d7b14610287578063476343ee146102b2578063604f2177146102c9578063627749e6146102e557806388ba8dd61461031057610163565b806302d05d3f1461019e57806304f3bcec146101c957806327793f87146101f4578063426e11081461021f578063469048401461025c57610163565b36610163576040517f08c379a000000000000000000000000000000000000000000000000000000000815260040161015a906110d4565b60405180910390fd5b6040517f08c379a0000000000000000000000000000000000000000000000000000000008152600401610195906110d4565b60405180910390fd5b3480156101aa57600080fd5b506101b36104b5565b6040516101c09190611135565b60405180910390f35b3480156101d557600080fd5b506101de6104d9565b6040516101eb9190611135565b60405180910390f35b34801561020057600080fd5b506102096104fd565b60405161021691906111c7565b60405180910390f35b34801561022b57600080fd5b5061024660048036038101906102419190611213565b61050e565b6040516102539190611259565b60405180910390f35b34801561026857600080fd5b50610271610526565b60405161027e9190611135565b60405180910390f35b34801561029357600080fd5b5061029c61054a565b6040516102a9919061128f565b60405180910390f35b3480156102be57600080fd5b506102c76105b1565b005b6102e360048036038101906102de91906112cf565b6106a0565b005b3480156102f157600080fd5b506102fa610971565b6040516103079190611259565b60405180910390f35b34801561031c57600080fd5b50610325610995565b6040516103329190611259565b60405180910390f35b34801561034757600080fd5b5061035061099b565b60405161035d9190611259565b60405180910390f35b61036e6109a1565b005b34801561037c57600080fd5b50610397600480360381019061039291906112cf565b6109ad565b005b3480156103a557600080fd5b506103c060048036038101906103bb9190611213565b610bf2565b6040516103cd9190611259565b60405180910390f35b3480156103e257600080fd5b506103eb610c0a565b6040516103f89190611259565b60405180910390f35b34801561040d57600080fd5b50610416610c10565b6040516104239190611315565b60405180910390f35b34801561043857600080fd5b50610441610c34565b005b34801561044f57600080fd5b50610458610f8b565b604051610465919061134d565b60405180910390f35b34801561047a57600080fd5b5061049560048036038101906104909190611213565b610f90565b6040516104a2919061128f565b60405180910390f35b6104b3610fb0565b005b7f000000000000000000000000000000000000000000000000000000000000000081565b7f000000000000000000000000000000000000000000000000000000000000000081565b60008054906101000a900460ff1681565b60056020528060005260406000206000915090505481565b7f000000000000000000000000000000000000000000000000000000000000000081565b60007f0000000000000000000000000000000000000000000000000000000000000000421080156105ac57506000600281111561058a57610589611150565b5b60008054906101000a900460ff1660028111156105aa576105a9611150565b5b145b905090565b7f000000000000000000000000000000000000000000000000000000000000000073ffffffffffffffffffffffffffffffffffffffff163373ffffffffffffffffffffffffffffffffffffffff1614610636576040517f75c4eb7400000000000000000000000000000000000000000000000000000000815260040160405180910390fd5b60006003549050600060038190555061064f3382610fbc565b3373ffffffffffffffffffffffffffffffffffffffff167fc0819c13be868895eb93e40eaceb96de976442fa1d404e5c55f14bb65a8c489a826040516106959190611259565b60405180910390a250565b6106a861054a565b6106de576040517fc02d38cc00000000000000000000000000000000000000000000000000000000815260040160405180910390fd5b600160028111156106f2576106f1611150565b5b81600281111561070557610704611150565b5b14158015610737575060028081111561072157610720611150565b5b81600281111561073457610733611150565b5b14155b1561076e576040517fc74a206d00000000000000000000000000000000000000000000000000000000815260040160405180910390fd5b600034036107a8576040517fcbca5aa200000000000000000000000000000000000000000000000000000000815260040160405180910390fd5b600061271061ffff16603261ffff16346107c29190611397565b6107cc9190611408565b9050600081346107dc9190611439565b905081600360008282546107f0919061146d565b925050819055506001600281111561080b5761080a611150565b5b83600281111561081e5761081d611150565b5b036108975780600460003373ffffffffffffffffffffffffffffffffffffffff1673ffffffffffffffffffffffffffffffffffffffff1681526020019081526020016000206000828254610872919061146d565b92505081905550806001600082825461088b919061146d565b92505081905550610907565b80600560003373ffffffffffffffffffffffffffffffffffffffff1673ffffffffffffffffffffffffffffffffffffffff16815260200190815260200160002060008282546108e6919061146d565b9250508190555080600260008282546108ff919061146d565b925050819055505b82600281111561091a57610919611150565b5b3373ffffffffffffffffffffffffffffffffffffffff167fa54d2e3dac2ed7e395310cf189cc1c2e3527948ac1296e60db2c269c9138c115348585604051610964939291906114a1565b60405180910390a3505050565b7f000000000000000000000000000000000000000000000000000000000000000081565b60015481565b60035481565b6109ab60016106a0565b565b7f0000000000000000000000000000000000000000000000000000000000000000421015610a07576040517fa8a9eb6900000000000000000000000000000000000000000000000000000000815260040160405180910390fd5b60006002811115610a1b57610a1a611150565b5b60008054906101000a900460ff166002811115610a3b57610a3a611150565b5b14610a72576040517f6d5703c200000000000000000000000000000000000000000000000000000000815260040160405180910390fd5b7f000000000000000000000000000000000000000000000000000000000000000073ffffffffffffffffffffffffffffffffffffffff163373ffffffffffffffffffffffffffffffffffffffff1614610af7576040517fba2a9fc200000000000000000000000000000000000000000000000000000000815260040160405180910390fd5b60016002811115610b0b57610b0a611150565b5b816002811115610b1e57610b1d611150565b5b14158015610b505750600280811115610b3a57610b39611150565b5b816002811115610b4d57610b4c611150565b5b14155b15610b87576040517fc74a206d00000000000000000000000000000000000000000000000000000000815260040160405180910390fd5b806000806101000a81548160ff02191690836002811115610bab57610baa611150565b5b0217905550806002811115610bc357610bc2611150565b5b7f5e186f09b9c93491f14e277eea7faa5de6a2d4bda75a79af7a3684fbfb42da6060405160405180910390a250565b60046020528060005260406000206000915090505481565b60025481565b7f000000000000000000000000000000000000000000000000000000000000000081565b60006002811115610c4857610c47611150565b5b60008054906101000a900460ff166002811115610c6857610c67611150565b5b03610c9f576040517fa8a9eb6900000000000000000000000000000000000000000000000000000000815260040160405180910390fd5b600660003373ffffffffffffffffffffffffffffffffffffffff1673ffffffffffffffffffffffffffffffffffffffff16815260200190815260200160002060009054906101000a900460ff1615610d23576040517f646cf55800000000000000000000000000000000000000000000000000000000815260040160405180910390fd5b6000600460003373ffffffffffffffffffffffffffffffffffffffff1673ffffffffffffffffffffffffffffffffffffffff1681526020019081526020016000205490506000600560003373ffffffffffffffffffffffffffffffffffffffff1673ffffffffffffffffffffffffffffffffffffffff16815260200190815260200160002054905060008183610db9919061146d565b905060008103610df5576040517f9890af6000000000000000000000000000000000000000000000000000000000815260040160405180910390fd5b6001600660003373ffffffffffffffffffffffffffffffffffffffff1673ffffffffffffffffffffffffffffffffffffffff16815260200190815260200160002060006101000a81548160ff0219169083151502179055506000600254600154610e5f919061146d565b9050600060016002811115610e7757610e76611150565b5b60008054906101000a900460ff166002811115610e9757610e96611150565b5b14610ea457600254610ea8565b6001545b90506000808203610ebb57839050610f2b565b600060016002811115610ed157610ed0611150565b5b60008054906101000a900460ff166002811115610ef157610ef0611150565b5b14610efc5785610efe565b865b905060008114610f2457828482610f159190611397565b610f1f9190611408565b610f27565b60005b9150505b610f353382610fbc565b3373ffffffffffffffffffffffffffffffffffffffff167f4896181ff8f4543cc00db9fe9b6fb7e6f032b7eb772c72ab1ec1b4d2e03b936982604051610f7b9190611259565b60405180910390a2505050505050565b603281565b60066020528060005260406000206000915054906101000a900460ff1681565b610fba60026106a0565b565b60008103156110735760008273ffffffffffffffffffffffffffffffffffffffff1682604051610feb90611509565b60006040518083038185875af1925050503d8060008114611028576040519150601f19603f3d011682016040523d82523d6000602084013e61102d565b606091505b5050905080611071576040517f08c379a00000000000000000000000000000000000000000000000000000000081526004016110689061156a565b60405180910390fd5b505b5050565b600082825260208201905092915050565b7f757365207374616b652829000000000000000000000000000000000000000000600082015250565b60006110be600b83611077565b91506110c982611088565b602082019050919050565b600060208201905081810360008301526110ed816110b1565b9050919050565b600073ffffffffffffffffffffffffffffffffffffffff82169050919050565b600061111f826110f4565b9050919050565b61112f81611114565b82525050565b600060208201905061114a6000830184611126565b92915050565b7f4e487b7100000000000000000000000000000000000000000000000000000000600052602160045260246000fd5b600381106111905761118f611150565b5b50565b60008190506111a18261117f565b919050565b60006111b182611193565b9050919050565b6111c1816111a6565b82525050565b60006020820190506111dc60008301846111b8565b92915050565b600080fd5b6111f081611114565b81146111fb57600080fd5b50565b60008135905061120d816111e7565b92915050565b600060208284031215611229576112286111e2565b5b6000611237848285016111fe565b91505092915050565b6000819050919050565b61125381611240565b82525050565b600060208201905061126e600083018461124a565b92915050565b60008115159050919050565b61128981611274565b82525050565b60006020820190506112a46000830184611280565b92915050565b600381106112b757600080fd5b50565b6000813590506112c9816112aa565b92915050565b6000602082840312156112e5576112e46111e2565b5b60006112f3848285016112ba565b91505092915050565b6000819050919050565b61130f816112fc565b82525050565b600060208201905061132a6000830184611306565b92915050565b600061ffff82169050919050565b61134781611330565b82525050565b6000602082019050611362600083018461133e565b92915050565b7f4e487b7100000000000000000000000000000000000000000000000000000000600052601160045260246000fd5b60006113a282611240565b91506113ad83611240565b92508282026113bb81611240565b915082820484148315176113d2576113d1611368565b5b5092915050565b7f4e487b7100000000000000000000000000000000000000000000000000000000600052601260045260246000fd5b600061141382611240565b915061141e83611240565b92508261142e5761142d6113d9565b5b828204905092915050565b600061144482611240565b915061144f83611240565b925082820390508181111561146757611466611368565b5b92915050565b600061147882611240565b915061148383611240565b925082820190508082111561149b5761149a611368565b5b92915050565b60006060820190506114b6600083018661124a565b6114c3602083018561124a565b6114d0604083018461124a565b949350505050565b600081905092915050565b50565b60006114f36000836114d8565b91506114fe826114e3565b600082019050919050565b6000611514826114e6565b9150819050919050565b7f455448207472616e73666572206661696c656400000000000000000000000000600082015250565b6000611554601383611077565b915061155f8261151e565b602082019050919050565b6000602082019050818103600083015261158381611547565b905091905056fea26469706673582212203d3b7ddb41757736a80bbc4057d271d3ea8e364bf6c8749503e6e458108059f364736f6c63430008140033a26469706673582212200e853958f980f4e04d3c2f72c3996367d7c3c4e50aa1980eedd5f950e79c4ee464736f6c63430008140033",
  "immutableReferences": {},
  "source": "// SPDX-License-Identifier: MIT\r\npragma solidity ^0.8.20;\r\n\r\nimport \"./PredictionMarket.sol\";\r\n\r\ncontract MarketFactory {\r\n    address public owner;\r\n    mapping(address => bool) public approvedCreator;\r\n    address[] public markets;\r\n\r\n    event CreatorApprovalChanged(address indexed creator, bool approved);\r\n    event MarketCreated(\r\n        address indexed market,\r\n        address indexed creator,\r\n        address indexed resolver,\r\n        address feeRecipient,\r\n        bytes32 questionId,\r\n        uint256 closeTime\r\n    );\r\n\r\n    error NotOwner();\r\n    error NotApprovedCreator();\r\n    error ZeroAddress();\r\n\r\n    modifier onlyOwner() {\r\n        if (msg.sender != owner) revert NotOwner();\r\n        _;\r\n    }\r\n\r\n    constructor() {\r\n        owner = msg.sender;\r\n        approvedCreator[msg.sender] = true;\r\n    }\r\n\r\n    function setApprovedCreator(address creator, bool approved) external onlyOwner {\r\n        if (creator == address(0)) revert ZeroAddress();\r\n        approvedCreator[creator] = approved;\r\n        emit CreatorApprovalChanged(creator, approved);\r\n    }\r\n\r\n    function createMarket(bytes32 questionId, uint256 closeTime, address resolver)\r\n        external\r\n        returns (address market)\r\n    {\r\n        if (!approvedCreator[msg.sender]) revert NotApprovedCreator();\r\n        if (resolver == address(0)) revert ZeroAddress();\r\n        require(closeTime > block.timestamp, \"closeTime<=now\");\r\n\r\n        PredictionMarket m = new PredictionMarket(questionId, closeTime, resolver, owner);\r\n        market = address(m);\r\n\r\n        markets.push(market);\r\n        emit MarketCreated(market, msg.sender, resolver, owner, questionId, closeTime);\r\n    }\r\n\r\n    function marketsCount() external view returns (uint256) {\r\n        return markets.length;\r\n    }\r\n}\r\n",
  "sourcePath": "C:\\Users\\marty\\Desktop\\univero nesamones\\BGT\\consensus\\contracts\\MarketFactory.sol",
  "compiler": {
    "name": "solc",
    "version": "0.8.20+commit.a1b79de6.Emscripten.clang"
  },
  "schemaVersion": "3.4.16",
  "updatedAt": "2025-12-09T23:00:28.112Z",
  "networkType": "ethereum",
  "devdoc": {
    "kind": "dev",
    "methods": {},
    "version": 1
  },
  "userdoc": {
    "kind": "user",
    "methods": {},
    "version": 1
  }
}