{
  "contractName": "PredictionMarket",
  "abi": [
    {
      "inputs": [
        {
          "internalType": "string",
          "name": "_question",
          "type": "string"
        },
        {
          "internalType": "uint256",
          "name": "_closeTime",
          "type": "uint256"
        },
        {
          "internalType": "address",
          "name": "_resolver",
          "type": "address"
        },
        {
          "internalType": "address",
          "name": "_feeRecipient",
          "type": "address"
        }
      ],
      "stateMutability": "nonpayable",
      "type": "constructor"
    },
    {
      "inputs": [],
      "name": "AlreadyClaimed",
      "type": "error"
    },
    {
      "inputs": [],
      "name": "AlreadyResolved",
      "type": "error"
    },
    {
      "inputs": [],
      "name": "AmountZero",
      "type": "error"
    },
    {
      "inputs": [],
      "name": "EmptyQuestion",
      "type": "error"
    },
    {
      "inputs": [],
      "name": "InvalidOutcome",
      "type": "error"
    },
    {
      "inputs": [],
      "name": "MarketNotClosed",
      "type": "error"
    },
    {
      "inputs": [],
      "name": "MarketNotOpen",
      "type": "error"
    },
    {
      "inputs": [],
      "name": "NotFeeRecipient",
      "type": "error"
    },
    {
      "inputs": [],
      "name": "NotResolver",
      "type": "error"
    },
    {
      "inputs": [],
      "name": "NothingToRedeem",
      "type": "error"
    },
    {
      "inputs": [],
      "name": "ZeroAddress",
      "type": "error"
    },
    {
      "anonymous": false,
      "inputs": [
        {
          "indexed": true,
          "internalType": "address",
          "name": "to",
          "type": "address"
        },
        {
          "indexed": false,
          "internalType": "uint256",
          "name": "amount",
          "type": "uint256"
        }
      ],
      "name": "FeesWithdrawn",
      "type": "event"
    },
    {
      "anonymous": false,
      "inputs": [
        {
          "indexed": true,
          "internalType": "address",
          "name": "trader",
          "type": "address"
        },
        {
          "indexed": false,
          "internalType": "uint256",
          "name": "payout",
          "type": "uint256"
        }
      ],
      "name": "Redeemed",
      "type": "event"
    },
    {
      "anonymous": false,
      "inputs": [
        {
          "indexed": true,
          "internalType": "enum PredictionMarket.Outcome",
          "name": "outcome",
          "type": "uint8"
        }
      ],
      "name": "Resolved",
      "type": "event"
    },
    {
      "anonymous": false,
      "inputs": [
        {
          "indexed": true,
          "internalType": "address",
          "name": "trader",
          "type": "address"
        },
        {
          "indexed": true,
          "internalType": "enum PredictionMarket.Outcome",
          "name": "side",
          "type": "uint8"
        },
        {
          "indexed": false,
          "internalType": "uint256",
          "name": "grossAmount",
          "type": "uint256"
        },
        {
          "indexed": false,
          "internalType": "uint256",
          "name": "fee",
          "type": "uint256"
        },
        {
          "indexed": false,
          "internalType": "uint256",
          "name": "netAmount",
          "type": "uint256"
        }
      ],
      "name": "Staked",
      "type": "event"
    },
    {
      "stateMutability": "payable",
      "type": "fallback"
    },
    {
      "inputs": [],
      "name": "FEE_BPS",
      "outputs": [
        {
          "internalType": "uint16",
          "name": "",
          "type": "uint16"
        }
      ],
      "stateMutability": "view",
      "type": "function"
    },
    {
      "inputs": [
        {
          "internalType": "address",
          "name": "",
          "type": "address"
        }
      ],
      "name": "claimed",
      "outputs": [
        {
          "internalType": "bool",
          "name": "",
          "type": "bool"
        }
      ],
      "stateMutability": "view",
      "type": "function"
    },
    {
      "inputs": [],
      "name": "closeTime",
      "outputs": [
        {
          "internalType": "uint256",
          "name": "",
          "type": "uint256"
        }
      ],
      "stateMutability": "view",
      "type": "function"
    },
    {
      "inputs": [],
      "name": "creator",
      "outputs": [
        {
          "internalType": "address",
          "name": "",
          "type": "address"
        }
      ],
      "stateMutability": "view",
      "type": "function"
    },
    {
      "inputs": [],
      "name": "feeRecipient",
      "outputs": [
        {
          "internalType": "address",
          "name": "",
          "type": "address"
        }
      ],
      "stateMutability": "view",
      "type": "function"
    },
    {
      "inputs": [],
      "name": "feesAccrued",
      "outputs": [
        {
          "internalType": "uint256",
          "name": "",
          "type": "uint256"
        }
      ],
      "stateMutability": "view",
      "type": "function"
    },
    {
      "inputs": [],
      "name": "outcome",
      "outputs": [
        {
          "internalType": "enum PredictionMarket.Outcome",
          "name": "",
          "type": "uint8"
        }
      ],
      "stateMutability": "view",
      "type": "function"
    },
    {
      "inputs": [],
      "name": "question",
      "outputs": [
        {
          "internalType": "string",
          "name": "",
          "type": "string"
        }
      ],
      "stateMutability": "view",
      "type": "function"
    },
    {
      "inputs": [],
      "name": "questionId",
      "outputs": [
        {
          "internalType": "bytes32",
          "name": "",
          "type": "bytes32"
        }
      ],
      "stateMutability": "view",
      "type": "function"
    },
    {
      "inputs": [],
      "name": "resolver",
      "outputs": [
        {
          "internalType": "address",
          "name": "",
          "type": "address"
        }
      ],
      "stateMutability": "view",
      "type": "function"
    },
    {
      "inputs": [
        {
          "internalType": "address",
          "name": "",
          "type": "address"
        }
      ],
      "name": "stakeNo",
      "outputs": [
        {
          "internalType": "uint256",
          "name": "",
          "type": "uint256"
        }
      ],
      "stateMutability": "view",
      "type": "function"
    },
    {
      "inputs": [
        {
          "internalType": "address",
          "name": "",
          "type": "address"
        }
      ],
      "name": "stakeYes",
      "outputs": [
        {
          "internalType": "uint256",
          "name": "",
          "type": "uint256"
        }
      ],
      "stateMutability": "view",
      "type": "function"
    },
    {
      "inputs": [],
      "name": "totalNo",
      "outputs": [
        {
          "internalType": "uint256",
          "name": "",
          "type": "uint256"
        }
      ],
      "stateMutability": "view",
      "type": "function"
    },
    {
      "inputs": [],
      "name": "totalYes",
      "outputs": [
        {
          "internalType": "uint256",
          "name": "",
          "type": "uint256"
        }
      ],
      "stateMutability": "view",
      "type": "function"
    },
    {
      "stateMutability": "payable",
      "type": "receive"
    },
    {
      "inputs": [],
      "name": "isOpen",
      "outputs": [
        {
          "internalType": "bool",
          "name": "",
          "type": "bool"
        }
      ],
      "stateMutability": "view",
      "type": "function"
    },
    {
      "inputs": [
        {
          "internalType": "enum PredictionMarket.Outcome",
          "name": "side",
          "type": "uint8"
        }
      ],
      "name": "stake",
      "outputs": [],
      "stateMutability": "payable",
      "type": "function"
    },
    {
      "inputs": [],
      "name": "stakeYesSide",
      "outputs": [],
      "stateMutability": "payable",
      "type": "function"
    },
    {
      "inputs": [],
      "name": "stakeNoSide",
      "outputs": [],
      "stateMutability": "payable",
      "type": "function"
    },
    {
      "inputs": [
        {
          "internalType": "enum PredictionMarket.Outcome",
          "name": "_outcome",
          "type": "uint8"
        }
      ],
      "name": "resolve",
      "outputs": [],
      "stateMutability": "nonpayable",
      "type": "function"
    },
    {
      "inputs": [],
      "name": "redeem",
      "outputs": [],
      "stateMutability": "nonpayable",
      "type": "function"
    },
    {
      "inputs": [],
      "name": "withdrawFees",
      "outputs": [],
      "stateMutability": "nonpayable",
      "type": "function"
    }
  ],
  "bytecode": "0x6101206040523480156200001257600080fd5b50604051620020e8380380620020e883398181016040528101906200003891906200048a565b600073ffffffffffffffffffffffffffffffffffffffff168273ffffffffffffffffffffffffffffffffffffffff161480620000a05750600073ffffffffffffffffffffffffffffffffffffffff168173ffffffffffffffffffffffffffffffffffffffff16145b15620000d8576040517fd92e233d00000000000000000000000000000000000000000000000000000000815260040160405180910390fd5b600084510362000114576040517f0d5003f300000000000000000000000000000000000000000000000000000000815260040160405180910390fd5b42831162000159576040517f08c379a000000000000000000000000000000000000000000000000000000000815260040162000150906200057c565b60405180910390fd5b3373ffffffffffffffffffffffffffffffffffffffff1660808173ffffffffffffffffffffffffffffffffffffffff16815250508173ffffffffffffffffffffffffffffffffffffffff1660a08173ffffffffffffffffffffffffffffffffffffffff16815250508073ffffffffffffffffffffffffffffffffffffffff1660c08173ffffffffffffffffffffffffffffffffffffffff16815250508260e0818152505083600090816200020e9190620007df565b50838051906020012061010081815250506000600160006101000a81548160ff02191690836002811115620002485762000247620008c6565b5b021790555050505050620008f5565b6000604051905090565b600080fd5b600080fd5b600080fd5b600080fd5b6000601f19601f8301169050919050565b7f4e487b7100000000000000000000000000000000000000000000000000000000600052604160045260246000fd5b620002c08262000275565b810181811067ffffffffffffffff82111715620002e257620002e162000286565b5b80604052505050565b6000620002f762000257565b9050620003058282620002b5565b919050565b600067ffffffffffffffff82111562000328576200032762000286565b5b620003338262000275565b9050602081019050919050565b60005b838110156200036057808201518184015260208101905062000343565b60008484015250505050565b6000620003836200037d846200030a565b620002eb565b905082815260208101848484011115620003a257620003a162000270565b5b620003af84828562000340565b509392505050565b600082601f830112620003cf57620003ce6200026b565b5b8151620003e18482602086016200036c565b91505092915050565b6000819050919050565b620003ff81620003ea565b81146200040b57600080fd5b50565b6000815190506200041f81620003f4565b92915050565b600073ffffffffffffffffffffffffffffffffffffffff82169050919050565b6000620004528262000425565b9050919050565b620004648162000445565b81146200047057600080fd5b50565b600081519050620004848162000459565b92915050565b60008060008060808587031215620004a757620004a662000261565b5b600085015167ffffffffffffffff811115620004c857620004c762000266565b5b620004d687828801620003b7565b9450506020620004e9878288016200040e565b9350506040620004fc8782880162000473565b92505060606200050f8782880162000473565b91505092959194509250565b600082825260208201905092915050565b7f636c6f736554696d653c3d6e6f77000000000000000000000000000000000000600082015250565b600062000564600e836200051b565b915062000571826200052c565b602082019050919050565b60006020820190508181036000830152620005978162000555565b9050919050565b600081519050919050565b7f4e487b7100000000000000000000000000000000000000000000000000000000600052602260045260246000fd5b60006002820490506001821680620005f157607f821691505b602082108103620006075762000606620005a9565b5b50919050565b60008190508160005260206000209050919050565b60006020601f8301049050919050565b600082821b905092915050565b600060088302620006717fffffffffffffffffffffffffffffffffffffffffffffffffffffffffffffffff8262000632565b6200067d868362000632565b95508019841693508086168417925050509392505050565b6000819050919050565b6000620006c0620006ba620006b484620003ea565b62000695565b620003ea565b9050919050565b6000819050919050565b620006dc836200069f565b620006f4620006eb82620006c7565b8484546200063f565b825550505050565b600090565b6200070b620006fc565b62000718818484620006d1565b505050565b5b8181101562000740576200073460008262000701565b6001810190506200071e565b5050565b601f8211156200078f5762000759816200060d565b620007648462000622565b8101602085101562000774578190505b6200078c620007838562000622565b8301826200071d565b50505b505050565b600082821c905092915050565b6000620007b46000198460080262000794565b1980831691505092915050565b6000620007cf8383620007a1565b9150826002028217905092915050565b620007ea826200059e565b67ffffffffffffffff81111562000806576200080562000286565b5b620008128254620005d8565b6200081f82828562000744565b600060209050601f83116001811462000857576000841562000842578287015190505b6200084e8582620007c1565b865550620008be565b601f19841662000867866200060d565b60005b8281101562000891578489015182556001820191506020850194506020810190506200086a565b86831015620008b15784890151620008ad601f891682620007a1565b8355505b6001600288020188555050505b505050505050565b7f4e487b7100000000000000000000000000000000000000000000000000000000600052602160045260246000fd5b60805160a05160c05160e05161010051611792620009566000396000610cdd01526000818161061401528181610a3b0152610a770152600081816105ee015261067b0152600081816105110152610b3e015260006104ed01526117926000f3fe60806040526004361061012e5760003560e01c806388ba8dd6116100ab578063af0088831161006f578063af0088831461040c578063b06a5c5214610437578063be040fb014610462578063bf333f2c14610479578063c884ef83146104a4578063f170e018146104e15761016e565b806388ba8dd61461034657806394db0595146103715780639916a6121461039c578063a0270dbc146103a6578063a28d0a91146103cf5761016e565b806346904840116100f2578063469048401461029257806347535d7b146102bd578063476343ee146102e8578063604f2177146102ff578063627749e61461031b5761016e565b806302d05d3f146101a957806304f3bcec146101d457806327793f87146101ff5780633fad9ae01461022a578063426e1108146102555761016e565b3661016e576040517f08c379a0000000000000000000000000000000000000000000000000000000008152600401610165906111a5565b60405180910390fd5b6040517f08c379a00000000000000000000000000000000000000000000000000000000081526004016101a0906111a5565b60405180910390fd5b3480156101b557600080fd5b506101be6104eb565b6040516101cb9190611206565b60405180910390f35b3480156101e057600080fd5b506101e961050f565b6040516101f69190611206565b60405180910390f35b34801561020b57600080fd5b50610214610533565b6040516102219190611298565b60405180910390f35b34801561023657600080fd5b5061023f610546565b60405161024c9190611332565b60405180910390f35b34801561026157600080fd5b5061027c60048036038101906102779190611385565b6105d4565b60405161028991906113cb565b60405180910390f35b34801561029e57600080fd5b506102a76105ec565b6040516102b49190611206565b60405180910390f35b3480156102c957600080fd5b506102d2610610565b6040516102df9190611401565b60405180910390f35b3480156102f457600080fd5b506102fd610679565b005b61031960048036038101906103149190611441565b610768565b005b34801561032757600080fd5b50610330610a39565b60405161033d91906113cb565b60405180910390f35b34801561035257600080fd5b5061035b610a5d565b60405161036891906113cb565b60405180910390f35b34801561037d57600080fd5b50610386610a63565b60405161039391906113cb565b60405180910390f35b6103a4610a69565b005b3480156103b257600080fd5b506103cd60048036038101906103c89190611441565b610a75565b005b3480156103db57600080fd5b506103f660048036038101906103f19190611385565b610cbd565b60405161040391906113cb565b60405180910390f35b34801561041857600080fd5b50610421610cd5565b60405161042e91906113cb565b60405180910390f35b34801561044357600080fd5b5061044c610cdb565b6040516104599190611487565b60405180910390f35b34801561046e57600080fd5b50610477610cff565b005b34801561048557600080fd5b5061048e61105c565b60405161049b91906114bf565b60405180910390f35b3480156104b057600080fd5b506104cb60048036038101906104c69190611385565b611061565b6040516104d89190611401565b60405180910390f35b6104e9611081565b005b7f000000000000000000000000000000000000000000000000000000000000000081565b7f000000000000000000000000000000000000000000000000000000000000000081565b600160009054906101000a900460ff1681565b6000805461055390611509565b80601f016020809104026020016040519081016040528092919081815260200182805461057f90611509565b80156105cc5780601f106105a1576101008083540402835291602001916105cc565b820191906000526020600020905b8154815290600101906020018083116105af57829003601f168201915b505050505081565b60066020528060005260406000206000915090505481565b7f000000000000000000000000000000000000000000000000000000000000000081565b60007f0000000000000000000000000000000000000000000000000000000000000000421080156106745750600060028111156106505761064f611221565b5b600160009054906101000a900460ff16600281111561067257610671611221565b5b145b905090565b7f000000000000000000000000000000000000000000000000000000000000000073ffffffffffffffffffffffffffffffffffffffff163373ffffffffffffffffffffffffffffffffffffffff16146106fe576040517f75c4eb7400000000000000000000000000000000000000000000000000000000815260040160405180910390fd5b600060045490506000600481905550610717338261108d565b3373ffffffffffffffffffffffffffffffffffffffff167fc0819c13be868895eb93e40eaceb96de976442fa1d404e5c55f14bb65a8c489a8260405161075d91906113cb565b60405180910390a250565b610770610610565b6107a6576040517fc02d38cc00000000000000000000000000000000000000000000000000000000815260040160405180910390fd5b600160028111156107ba576107b9611221565b5b8160028111156107cd576107cc611221565b5b141580156107ff57506002808111156107e9576107e8611221565b5b8160028111156107fc576107fb611221565b5b14155b15610836576040517fc74a206d00000000000000000000000000000000000000000000000000000000815260040160405180910390fd5b60003403610870576040517fcbca5aa200000000000000000000000000000000000000000000000000000000815260040160405180910390fd5b600061271061ffff16603261ffff163461088a9190611569565b61089491906115da565b9050600081346108a4919061160b565b905081600460008282546108b8919061163f565b92505081905550600160028111156108d3576108d2611221565b5b8360028111156108e6576108e5611221565b5b0361095f5780600560003373ffffffffffffffffffffffffffffffffffffffff1673ffffffffffffffffffffffffffffffffffffffff168152602001908152602001600020600082825461093a919061163f565b925050819055508060026000828254610953919061163f565b925050819055506109cf565b80600660003373ffffffffffffffffffffffffffffffffffffffff1673ffffffffffffffffffffffffffffffffffffffff16815260200190815260200160002060008282546109ae919061163f565b9250508190555080600360008282546109c7919061163f565b925050819055505b8260028111156109e2576109e1611221565b5b3373ffffffffffffffffffffffffffffffffffffffff167fa54d2e3dac2ed7e395310cf189cc1c2e3527948ac1296e60db2c269c9138c115348585604051610a2c93929190611673565b60405180910390a3505050565b7f000000000000000000000000000000000000000000000000000000000000000081565b60025481565b60045481565b610a736001610768565b565b7f0000000000000000000000000000000000000000000000000000000000000000421015610acf576040517fa8a9eb6900000000000000000000000000000000000000000000000000000000815260040160405180910390fd5b60006002811115610ae357610ae2611221565b5b600160009054906101000a900460ff166002811115610b0557610b04611221565b5b14610b3c576040517f6d5703c200000000000000000000000000000000000000000000000000000000815260040160405180910390fd5b7f000000000000000000000000000000000000000000000000000000000000000073ffffffffffffffffffffffffffffffffffffffff163373ffffffffffffffffffffffffffffffffffffffff1614610bc1576040517fba2a9fc200000000000000000000000000000000000000000000000000000000815260040160405180910390fd5b60016002811115610bd557610bd4611221565b5b816002811115610be857610be7611221565b5b14158015610c1a5750600280811115610c0457610c03611221565b5b816002811115610c1757610c16611221565b5b14155b15610c51576040517fc74a206d00000000000000000000000000000000000000000000000000000000815260040160405180910390fd5b80600160006101000a81548160ff02191690836002811115610c7657610c75611221565b5b0217905550806002811115610c8e57610c8d611221565b5b7f5e186f09b9c93491f14e277eea7faa5de6a2d4bda75a79af7a3684fbfb42da6060405160405180910390a250565b60056020528060005260406000206000915090505481565b60035481565b7f000000000000000000000000000000000000000000000000000000000000000081565b60006002811115610d1357610d12611221565b5b600160009054906101000a900460ff166002811115610d3557610d34611221565b5b03610d6c576040517fa8a9eb6900000000000000000000000000000000000000000000000000000000815260040160405180910390fd5b600760003373ffffffffffffffffffffffffffffffffffffffff1673ffffffffffffffffffffffffffffffffffffffff16815260200190815260200160002060009054906101000a900460ff1615610df0576040517f646cf55800000000000000000000000000000000000000000000000000000000815260040160405180910390fd5b6000600560003373ffffffffffffffffffffffffffffffffffffffff1673ffffffffffffffffffffffffffffffffffffffff1681526020019081526020016000205490506000600660003373ffffffffffffffffffffffffffffffffffffffff1673ffffffffffffffffffffffffffffffffffffffff16815260200190815260200160002054905060008183610e86919061163f565b905060008103610ec2576040517f9890af6000000000000000000000000000000000000000000000000000000000815260040160405180910390fd5b6001600760003373ffffffffffffffffffffffffffffffffffffffff1673ffffffffffffffffffffffffffffffffffffffff16815260200190815260200160002060006101000a81548160ff0219169083151502179055506000600354600254610f2c919061163f565b9050600060016002811115610f4457610f43611221565b5b600160009054906101000a900460ff166002811115610f6657610f65611221565b5b14610f7357600354610f77565b6002545b90506000808203610f8a57839050610ffc565b600060016002811115610fa057610f9f611221565b5b600160009054906101000a900460ff166002811115610fc257610fc1611221565b5b14610fcd5785610fcf565b865b905060008114610ff557828482610fe69190611569565b610ff091906115da565b610ff8565b60005b9150505b611006338261108d565b3373ffffffffffffffffffffffffffffffffffffffff167f4896181ff8f4543cc00db9fe9b6fb7e6f032b7eb772c72ab1ec1b4d2e03b93698260405161104c91906113cb565b60405180910390a2505050505050565b603281565b60076020528060005260406000206000915054906101000a900460ff1681565b61108b6002610768565b565b60008103156111445760008273ffffffffffffffffffffffffffffffffffffffff16826040516110bc906116db565b60006040518083038185875af1925050503d80600081146110f9576040519150601f19603f3d011682016040523d82523d6000602084013e6110fe565b606091505b5050905080611142576040517f08c379a00000000000000000000000000000000000000000000000000000000081526004016111399061173c565b60405180910390fd5b505b5050565b600082825260208201905092915050565b7f757365207374616b652829000000000000000000000000000000000000000000600082015250565b600061118f600b83611148565b915061119a82611159565b602082019050919050565b600060208201905081810360008301526111be81611182565b9050919050565b600073ffffffffffffffffffffffffffffffffffffffff82169050919050565b60006111f0826111c5565b9050919050565b611200816111e5565b82525050565b600060208201905061121b60008301846111f7565b92915050565b7f4e487b7100000000000000000000000000000000000000000000000000000000600052602160045260246000fd5b6003811061126157611260611221565b5b50565b600081905061127282611250565b919050565b600061128282611264565b9050919050565b61129281611277565b82525050565b60006020820190506112ad6000830184611289565b92915050565b600081519050919050565b60005b838110156112dc5780820151818401526020810190506112c1565b60008484015250505050565b6000601f19601f8301169050919050565b6000611304826112b3565b61130e8185611148565b935061131e8185602086016112be565b611327816112e8565b840191505092915050565b6000602082019050818103600083015261134c81846112f9565b905092915050565b600080fd5b611362816111e5565b811461136d57600080fd5b50565b60008135905061137f81611359565b92915050565b60006020828403121561139b5761139a611354565b5b60006113a984828501611370565b91505092915050565b6000819050919050565b6113c5816113b2565b82525050565b60006020820190506113e060008301846113bc565b92915050565b60008115159050919050565b6113fb816113e6565b82525050565b600060208201905061141660008301846113f2565b92915050565b6003811061142957600080fd5b50565b60008135905061143b8161141c565b92915050565b60006020828403121561145757611456611354565b5b60006114658482850161142c565b91505092915050565b6000819050919050565b6114818161146e565b82525050565b600060208201905061149c6000830184611478565b92915050565b600061ffff82169050919050565b6114b9816114a2565b82525050565b60006020820190506114d460008301846114b0565b92915050565b7f4e487b7100000000000000000000000000000000000000000000000000000000600052602260045260246000fd5b6000600282049050600182168061152157607f821691505b602082108103611534576115336114da565b5b50919050565b7f4e487b7100000000000000000000000000000000000000000000000000000000600052601160045260246000fd5b6000611574826113b2565b915061157f836113b2565b925082820261158d816113b2565b915082820484148315176115a4576115a361153a565b5b5092915050565b7f4e487b7100000000000000000000000000000000000000000000000000000000600052601260045260246000fd5b60006115e5826113b2565b91506115f0836113b2565b925082611600576115ff6115ab565b5b828204905092915050565b6000611616826113b2565b9150611621836113b2565b92508282039050818111156116395761163861153a565b5b92915050565b600061164a826113b2565b9150611655836113b2565b925082820190508082111561166d5761166c61153a565b5b92915050565b600060608201905061168860008301866113bc565b61169560208301856113bc565b6116a260408301846113bc565b949350505050565b600081905092915050565b50565b60006116c56000836116aa565b91506116d0826116b5565b600082019050919050565b60006116e6826116b8565b9150819050919050565b7f455448207472616e73666572206661696c656400000000000000000000000000600082015250565b6000611726601383611148565b9150611731826116f0565b602082019050919050565b6000602082019050818103600083015261175581611719565b905091905056fea2646970667358221220f4051a8d97ac55f0a0084dbc28f0ff50ea1b12c01b3839122a91f92477c3b8f164736f6c63430008140033",
  "immutableReferences": {
    "219": [
      {
        "length": 32,
        "start": 1261
      }
    ],
    "221": [
      {
        "length": 32,
        "start": 1297
      },
      {
        "length": 32,
        "start": 2878
      }
    ],
    "223": [
      {
        "length": 32,
        "start": 1518
      },
      {
        "length": 32,
        "start": 1659
      }
    ],
    "225": [
      {
        "length": 32,
        "start": 1556
      },
      {
        "length": 32,
        "start": 2619
      },
      {
        "length": 32,
        "start": 2679
      }
    ],
    "227": [
      {
        "length": 32,
        "start": 3293
      }
    ]
  },
  "source": "// SPDX-License-Identifier: MIT\r\npragma solidity ^0.8.20;\r\n\r\ncontract PredictionMarket {\n    enum Outcome { Unresolved, Yes, No }\n\n    uint16 public constant FEE_BPS = 50;      // 0.5% = 50 / 10_000\n    uint16 private constant BPS_DENOM = 10_000;\n\n    address public immutable creator;\n    address public immutable resolver;\n    address public immutable feeRecipient;\n    uint256 public immutable closeTime;\n    bytes32 public immutable questionId;\n    string public question;\n\n    Outcome public outcome;\n\r\n    uint256 public totalYes;     // net pool amounts (fees excluded)\r\n    uint256 public totalNo;      // net pool amounts (fees excluded)\r\n    uint256 public feesAccrued;  // fees in ETH, withdrawable\r\n\r\n    mapping(address => uint256) public stakeYes; // net stake\r\n    mapping(address => uint256) public stakeNo;  // net stake\r\n    mapping(address => bool) public claimed;\r\n\r\n    event Staked(address indexed trader, Outcome indexed side, uint256 grossAmount, uint256 fee, uint256 netAmount);\r\n    event Resolved(Outcome indexed outcome);\r\n    event Redeemed(address indexed trader, uint256 payout);\r\n    event FeesWithdrawn(address indexed to, uint256 amount);\r\n\r\n    error MarketNotOpen();\r\n    error MarketNotClosed();\r\n    error AlreadyResolved();\r\n    error NotResolver();\r\n    error InvalidOutcome();\r\n    error AmountZero();\r\n    error AlreadyClaimed();\r\n    error NothingToRedeem();\n    error NotFeeRecipient();\n    error ZeroAddress();\n    error EmptyQuestion();\n\n    constructor(\n        string memory _question,\n        uint256 _closeTime,\n        address _resolver,\n        address _feeRecipient\n    ) {\n        if (_resolver == address(0) || _feeRecipient == address(0)) revert ZeroAddress();\n        if (bytes(_question).length == 0) revert EmptyQuestion();\n        require(_closeTime > block.timestamp, \"closeTime<=now\");\n\n        creator = msg.sender;\n        resolver = _resolver;\n        feeRecipient = _feeRecipient;\n        closeTime = _closeTime;\n        question = _question;\n        questionId = keccak256(bytes(_question));\n        outcome = Outcome.Unresolved;\n    }\n\r\n    function isOpen() public view returns (bool) {\r\n        return block.timestamp < closeTime && outcome == Outcome.Unresolved;\r\n    }\r\n\r\n    function stake(Outcome side) public payable {\r\n        if (!isOpen()) revert MarketNotOpen();\r\n        if (side != Outcome.Yes && side != Outcome.No) revert InvalidOutcome();\r\n        if (msg.value == 0) revert AmountZero();\r\n\r\n        uint256 fee = (msg.value * FEE_BPS) / BPS_DENOM;\r\n        uint256 net = msg.value - fee;\r\n\r\n        feesAccrued += fee;\r\n\r\n        if (side == Outcome.Yes) {\r\n            stakeYes[msg.sender] += net;\r\n            totalYes += net;\r\n        } else {\r\n            stakeNo[msg.sender] += net;\r\n            totalNo += net;\r\n        }\r\n\r\n        emit Staked(msg.sender, side, msg.value, fee, net);\r\n    }\r\n\r\n    function stakeYesSide() external payable { stake(Outcome.Yes); }\r\n    function stakeNoSide() external payable { stake(Outcome.No); }\r\n\r\n    function resolve(Outcome _outcome) external {\r\n        if (block.timestamp < closeTime) revert MarketNotClosed();\r\n        if (outcome != Outcome.Unresolved) revert AlreadyResolved();\r\n        if (msg.sender != resolver) revert NotResolver();\r\n        if (_outcome != Outcome.Yes && _outcome != Outcome.No) revert InvalidOutcome();\r\n\r\n        outcome = _outcome;\r\n        emit Resolved(_outcome);\r\n    }\r\n\r\n    function redeem() external {\r\n        if (outcome == Outcome.Unresolved) revert MarketNotClosed();\r\n        if (claimed[msg.sender]) revert AlreadyClaimed();\r\n\r\n        uint256 userYes = stakeYes[msg.sender];\r\n        uint256 userNo  = stakeNo[msg.sender];\r\n        uint256 userTotal = userYes + userNo;\r\n        if (userTotal == 0) revert NothingToRedeem();\r\n\r\n        claimed[msg.sender] = true;\r\n\r\n        uint256 pool = totalYes + totalNo;\r\n        uint256 winningPool = (outcome == Outcome.Yes) ? totalYes : totalNo;\r\n\r\n        uint256 payout;\r\n        if (winningPool == 0) {\r\n            payout = userTotal; // void: refund net stakes (fees still kept)\r\n        } else {\r\n            uint256 userWinningStake = (outcome == Outcome.Yes) ? userYes : userNo;\r\n            payout = (userWinningStake == 0) ? 0 : (userWinningStake * pool) / winningPool;\r\n        }\r\n\r\n        _sendETH(msg.sender, payout);\r\n        emit Redeemed(msg.sender, payout);\r\n    }\r\n\r\n    function withdrawFees() external {\r\n        if (msg.sender != feeRecipient) revert NotFeeRecipient();\r\n\r\n        uint256 amount = feesAccrued;\r\n        feesAccrued = 0;\r\n\r\n        _sendETH(msg.sender, amount);\r\n        emit FeesWithdrawn(msg.sender, amount);\r\n    }\r\n\r\n    function _sendETH(address to, uint256 amount) internal {\r\n        if (amount == 0) return;\r\n        (bool ok, ) = to.call{value: amount}(\"\");\r\n        require(ok, \"ETH transfer failed\");\r\n    }\r\n\r\n    receive() external payable { revert(\"use stake()\"); }\r\n    fallback() external payable { revert(\"use stake()\"); }\r\n}\r\n",
  "sourcePath": "C:\\Users\\marty\\Desktop\\univero nesamones\\BGT\\consensus\\contracts\\PredictionMarket.sol",
  "compiler": {
    "name": "solc",
    "version": "0.8.20+commit.a1b79de6.Emscripten.clang"
  },
  "schemaVersion": "3.4.16",
  "updatedAt": "2025-12-17T15:49:51.030Z",
  "devdoc": {
    "kind": "dev",
    "methods": {},
    "version": 1
  },
  "userdoc": {
    "kind": "user",
    "methods": {},
    "version": 1
  }
}