{
	"data": {
		"bytecode": {
			"linkReferences": {},
			"object": "610100604052348015610010575f5ffd5b5060405161166a38038061166a8339818101604052810190610032919061024e565b5f73ffffffffffffffffffffffffffffffffffffffff168173ffffffffffffffffffffffffffffffffffffffff16036100a0576040517f08c379a0000000000000000000000000000000000000000000000000000000008152600401610097906102f8565b60405180910390fd5b4282116100e2576040517f08c379a00000000000000000000000000000000000000000000000000000000081526004016100d990610360565b60405180910390fd5b3373ffffffffffffffffffffffffffffffffffffffff1660808173ffffffffffffffffffffffffffffffffffffffff16815250508073ffffffffffffffffffffffffffffffffffffffff1660a08173ffffffffffffffffffffffffffffffffffffffff16815250508160c081815250508260e081815250505f5f5f6101000a81548160ff0219169083600281111561017d5761017c61037e565b5b02179055505050506103ab565b5f5ffd5b5f819050919050565b6101a08161018e565b81146101aa575f5ffd5b50565b5f815190506101bb81610197565b92915050565b5f819050919050565b6101d3816101c1565b81146101dd575f5ffd5b50565b5f815190506101ee816101ca565b92915050565b5f73ffffffffffffffffffffffffffffffffffffffff82169050919050565b5f61021d826101f4565b9050919050565b61022d81610213565b8114610237575f5ffd5b50565b5f8151905061024881610224565b92915050565b5f5f5f606084860312156102655761026461018a565b5b5f610272868287016101ad565b9350506020610283868287016101e0565b92505060406102948682870161023a565b9150509250925092565b5f82825260208201905092915050565b7f7265736f6c7665723d30000000000000000000000000000000000000000000005f82015250565b5f6102e2600a8361029e565b91506102ed826102ae565b602082019050919050565b5f6020820190508181035f83015261030f816102d6565b9050919050565b7f636c6f736554696d653c3d6e6f770000000000000000000000000000000000005f82015250565b5f61034a600e8361029e565b915061035582610316565b602082019050919050565b5f6020820190508181035f8301526103778161033e565b9050919050565b7f4e487b71000000000000000000000000000000000000000000000000000000005f52602160045260245ffd5b60805160a05160c05160e0516112776103f35f395f6109bf01525f81816104540152818161072b015261076101525f8181610409015261082501525f6103e501526112775ff3fe6080604052600436106100f6575f3560e01c80639916a61211610089578063b06a5c5211610058578063b06a5c521461035d578063be040fb014610387578063c884ef831461039d578063f170e018146103d957610136565b80639916a612146102c5578063a0270dbc146102cf578063a28d0a91146102f7578063af0088831461033357610136565b806347535d7b116100c557806347535d7b1461022b578063604f217714610255578063627749e61461027157806388ba8dd61461029b57610136565b806302d05d3f1461017157806304f3bcec1461019b57806327793f87146101c5578063426e1108146101ef57610136565b36610136576040517f08c379a000000000000000000000000000000000000000000000000000000000815260040161012d90610e5c565b60405180910390fd5b6040517f08c379a000000000000000000000000000000000000000000000000000000000815260040161016890610e5c565b60405180910390fd5b34801561017c575f5ffd5b506101856103e3565b6040516101929190610eb9565b60405180910390f35b3480156101a6575f5ffd5b506101af610407565b6040516101bc9190610eb9565b60405180910390f35b3480156101d0575f5ffd5b506101d961042b565b6040516101e69190610f45565b60405180910390f35b3480156101fa575f5ffd5b5061021560048036038101906102109190610f8c565b61043c565b6040516102229190610fcf565b60405180910390f35b348015610236575f5ffd5b5061023f610451565b60405161024c9190611002565b60405180910390f35b61026f600480360381019061026a919061103e565b6104b6565b005b34801561027c575f5ffd5b50610285610729565b6040516102929190610fcf565b60405180910390f35b3480156102a6575f5ffd5b506102af61074d565b6040516102bc9190610fcf565b60405180910390f35b6102cd610753565b005b3480156102da575f5ffd5b506102f560048036038101906102f0919061103e565b61075f565b005b348015610302575f5ffd5b5061031d60048036038101906103189190610f8c565b6109a2565b60405161032a9190610fcf565b60405180910390f35b34801561033e575f5ffd5b506103476109b7565b6040516103549190610fcf565b60405180910390f35b348015610368575f5ffd5b506103716109bd565b60405161037e9190611081565b60405180910390f35b348015610392575f5ffd5b5061039b6109e1565b005b3480156103a8575f5ffd5b506103c360048036038101906103be9190610f8c565b610d23565b6040516103d09190611002565b60405180910390f35b6103e1610d40565b005b7f000000000000000000000000000000000000000000000000000000000000000081565b7f000000000000000000000000000000000000000000000000000000000000000081565b5f5f9054906101000a900460ff1681565b6004602052805f5260405f205f915090505481565b5f7f0000000000000000000000000000000000000000000000000000000000000000421080156104b157505f600281111561048f5761048e610ed2565b5b5f5f9054906101000a900460ff1660028111156104af576104ae610ed2565b5b145b905090565b6104be610451565b6104f4576040517fc02d38cc00000000000000000000000000000000000000000000000000000000815260040160405180910390fd5b6001600281111561050857610507610ed2565b5b81600281111561051b5761051a610ed2565b5b1415801561054d575060028081111561053757610536610ed2565b5b81600281111561054a57610549610ed2565b5b14155b15610584576040517fc74a206d00000000000000000000000000000000000000000000000000000000815260040160405180910390fd5b5f34036105bd576040517fcbca5aa200000000000000000000000000000000000000000000000000000000815260040160405180910390fd5b600160028111156105d1576105d0610ed2565b5b8160028111156105e4576105e3610ed2565b5b03610659573460035f3373ffffffffffffffffffffffffffffffffffffffff1673ffffffffffffffffffffffffffffffffffffffff1681526020019081526020015f205f82825461063591906110c7565b925050819055503460015f82825461064d91906110c7565b925050819055506106c5565b3460045f3373ffffffffffffffffffffffffffffffffffffffff1673ffffffffffffffffffffffffffffffffffffffff1681526020019081526020015f205f8282546106a591906110c7565b925050819055503460025f8282546106bd91906110c7565b925050819055505b8060028111156106d8576106d7610ed2565b5b3373ffffffffffffffffffffffffffffffffffffffff167f3cf14181ae25669a913d72411736fc5c01f538fa503e963b0b2e56bcefb3edaf3460405161071e9190610fcf565b60405180910390a350565b7f000000000000000000000000000000000000000000000000000000000000000081565b60015481565b61075d60016104b6565b565b7f00000000000000000000000000000000000000000000000000000000000000004210156107b9576040517fa8a9eb6900000000000000000000000000000000000000000000000000000000815260040160405180910390fd5b5f60028111156107cc576107cb610ed2565b5b5f5f9054906101000a900460ff1660028111156107ec576107eb610ed2565b5b14610823576040517f6d5703c200000000000000000000000000000000000000000000000000000000815260040160405180910390fd5b7f000000000000000000000000000000000000000000000000000000000000000073ffffffffffffffffffffffffffffffffffffffff163373ffffffffffffffffffffffffffffffffffffffff16146108a8576040517fba2a9fc200000000000000000000000000000000000000000000000000000000815260040160405180910390fd5b600160028111156108bc576108bb610ed2565b5b8160028111156108cf576108ce610ed2565b5b1415801561090157506002808111156108eb576108ea610ed2565b5b8160028111156108fe576108fd610ed2565b5b14155b15610938576040517fc74a206d00000000000000000000000000000000000000000000000000000000815260040160405180910390fd5b805f5f6101000a81548160ff0219169083600281111561095b5761095a610ed2565b5b021790555080600281111561097357610972610ed2565b5b7f5e186f09b9c93491f14e277eea7faa5de6a2d4bda75a79af7a3684fbfb42da6060405160405180910390a250565b6003602052805f5260405f205f915090505481565b60025481565b7f000000000000000000000000000000000000000000000000000000000000000081565b5f60028111156109f4576109f3610ed2565b5b5f5f9054906101000a900460ff166002811115610a1457610a13610ed2565b5b03610a4b576040517fa8a9eb6900000000000000000000000000000000000000000000000000000000815260040160405180910390fd5b60055f3373ffffffffffffffffffffffffffffffffffffffff1673ffffffffffffffffffffffffffffffffffffffff1681526020019081526020015f205f9054906101000a900460ff1615610acc576040517f646cf55800000000000000000000000000000000000000000000000000000000815260040160405180910390fd5b5f60035f3373ffffffffffffffffffffffffffffffffffffffff1673ffffffffffffffffffffffffffffffffffffffff1681526020019081526020015f205490505f60045f3373ffffffffffffffffffffffffffffffffffffffff1673ffffffffffffffffffffffffffffffffffffffff1681526020019081526020015f205490505f8183610b5b91906110c7565b90505f8103610b96576040517f9890af6000000000000000000000000000000000000000000000000000000000815260040160405180910390fd5b600160055f3373ffffffffffffffffffffffffffffffffffffffff1673ffffffffffffffffffffffffffffffffffffffff1681526020019081526020015f205f6101000a81548160ff0219169083151502179055505f600254600154610bfc91906110c7565b90505f60016002811115610c1357610c12610ed2565b5b5f5f9054906101000a900460ff166002811115610c3357610c32610ed2565b5b14610c4057600254610c44565b6001545b90505f5f8203610c5657839050610cc3565b5f60016002811115610c6b57610c6a610ed2565b5b5f5f9054906101000a900460ff166002811115610c8b57610c8a610ed2565b5b14610c965785610c98565b865b90505f8114610cbd57828482610cae91906110fa565b610cb89190611168565b610cbf565b5f5b9150505b610ccd3382610d4c565b3373ffffffffffffffffffffffffffffffffffffffff167f4896181ff8f4543cc00db9fe9b6fb7e6f032b7eb772c72ab1ec1b4d2e03b936982604051610d139190610fcf565b60405180910390a2505050505050565b6005602052805f5260405f205f915054906101000a900460ff1681565b610d4a60026104b6565b565b5f810315610dfe575f8273ffffffffffffffffffffffffffffffffffffffff1682604051610d79906111c5565b5f6040518083038185875af1925050503d805f8114610db3576040519150601f19603f3d011682016040523d82523d5f602084013e610db8565b606091505b5050905080610dfc576040517f08c379a0000000000000000000000000000000000000000000000000000000008152600401610df390611223565b60405180910390fd5b505b5050565b5f82825260208201905092915050565b7f757365207374616b6528290000000000000000000000000000000000000000005f82015250565b5f610e46600b83610e02565b9150610e5182610e12565b602082019050919050565b5f6020820190508181035f830152610e7381610e3a565b9050919050565b5f73ffffffffffffffffffffffffffffffffffffffff82169050919050565b5f610ea382610e7a565b9050919050565b610eb381610e99565b82525050565b5f602082019050610ecc5f830184610eaa565b92915050565b7f4e487b71000000000000000000000000000000000000000000000000000000005f52602160045260245ffd5b60038110610f1057610f0f610ed2565b5b50565b5f819050610f2082610eff565b919050565b5f610f2f82610f13565b9050919050565b610f3f81610f25565b82525050565b5f602082019050610f585f830184610f36565b92915050565b5f5ffd5b610f6b81610e99565b8114610f75575f5ffd5b50565b5f81359050610f8681610f62565b92915050565b5f60208284031215610fa157610fa0610f5e565b5b5f610fae84828501610f78565b91505092915050565b5f819050919050565b610fc981610fb7565b82525050565b5f602082019050610fe25f830184610fc0565b92915050565b5f8115159050919050565b610ffc81610fe8565b82525050565b5f6020820190506110155f830184610ff3565b92915050565b60038110611027575f5ffd5b50565b5f813590506110388161101b565b92915050565b5f6020828403121561105357611052610f5e565b5b5f6110608482850161102a565b91505092915050565b5f819050919050565b61107b81611069565b82525050565b5f6020820190506110945f830184611072565b92915050565b7f4e487b71000000000000000000000000000000000000000000000000000000005f52601160045260245ffd5b5f6110d182610fb7565b91506110dc83610fb7565b92508282019050808211156110f4576110f361109a565b5b92915050565b5f61110482610fb7565b915061110f83610fb7565b925082820261111d81610fb7565b915082820484148315176111345761113361109a565b5b5092915050565b7f4e487b71000000000000000000000000000000000000000000000000000000005f52601260045260245ffd5b5f61117282610fb7565b915061117d83610fb7565b92508261118d5761118c61113b565b5b828204905092915050565b5f81905092915050565b50565b5f6111b05f83611198565b91506111bb826111a2565b5f82019050919050565b5f6111cf826111a5565b9150819050919050565b7f455448207472616e73666572206661696c6564000000000000000000000000005f82015250565b5f61120d601383610e02565b9150611218826111d9565b602082019050919050565b5f6020820190508181035f83015261123a81611201565b905091905056fea264697066735822122046a23b680e93f105282a06d6c66b3c7fd2ab07b5e2ac73ef020b2b94d2e0ddb964736f6c634300081e0033",
			"opcodes": "PUSH2 0x100 PUSH1 0x40 MSTORE CALLVALUE DUP1 ISZERO PUSH2 0x10 JUMPI PUSH0 PUSH0 REVERT JUMPDEST POP PUSH1 0x40 MLOAD PUSH2 0x166A CODESIZE SUB DUP1 PUSH2 0x166A DUP4 CODECOPY DUP2 DUP2 ADD PUSH1 0x40 MSTORE DUP2 ADD SWAP1 PUSH2 0x32 SWAP2 SWAP1 PUSH2 0x24E JUMP JUMPDEST PUSH0 PUSH20 0xFFFFFFFFFFFFFFFFFFFFFFFFFFFFFFFFFFFFFFFF AND DUP2 PUSH20 0xFFFFFFFFFFFFFFFFFFFFFFFFFFFFFFFFFFFFFFFF AND SUB PUSH2 0xA0 JUMPI PUSH1 0x40 MLOAD PUSH32 0x8C379A000000000000000000000000000000000000000000000000000000000 DUP2 MSTORE PUSH1 0x4 ADD PUSH2 0x97 SWAP1 PUSH2 0x2F8 JUMP JUMPDEST PUSH1 0x40 MLOAD DUP1 SWAP2 SUB SWAP1 REVERT JUMPDEST TIMESTAMP DUP3 GT PUSH2 0xE2 JUMPI PUSH1 0x40 MLOAD PUSH32 0x8C379A000000000000000000000000000000000000000000000000000000000 DUP2 MSTORE PUSH1 0x4 ADD PUSH2 0xD9 SWAP1 PUSH2 0x360 JUMP JUMPDEST PUSH1 0x40 MLOAD DUP1 SWAP2 SUB SWAP1 REVERT JUMPDEST CALLER PUSH20 0xFFFFFFFFFFFFFFFFFFFFFFFFFFFFFFFFFFFFFFFF AND PUSH1 0x80 DUP2 PUSH20 0xFFFFFFFFFFFFFFFFFFFFFFFFFFFFFFFFFFFFFFFF AND DUP2 MSTORE POP POP DUP1 PUSH20 0xFFFFFFFFFFFFFFFFFFFFFFFFFFFFFFFFFFFFFFFF AND PUSH1 0xA0 DUP2 PUSH20 0xFFFFFFFFFFFFFFFFFFFFFFFFFFFFFFFFFFFFFFFF AND DUP2 MSTORE POP POP DUP2 PUSH1 0xC0 DUP2 DUP2 MSTORE POP POP DUP3 PUSH1 0xE0 DUP2 DUP2 MSTORE POP POP PUSH0 PUSH0 PUSH0 PUSH2 0x100 EXP DUP2 SLOAD DUP2 PUSH1 0xFF MUL NOT AND SWAP1 DUP4 PUSH1 0x2 DUP2 GT ISZERO PUSH2 0x17D JUMPI PUSH2 0x17C PUSH2 0x37E JUMP JUMPDEST JUMPDEST MUL OR SWAP1 SSTORE POP POP POP POP PUSH2 0x3AB JUMP JUMPDEST PUSH0 PUSH0 REVERT JUMPDEST PUSH0 DUP2 SWAP1 POP SWAP2 SWAP1 POP JUMP JUMPDEST PUSH2 0x1A0 DUP2 PUSH2 0x18E JUMP JUMPDEST DUP2 EQ PUSH2 0x1AA JUMPI PUSH0 PUSH0 REVERT JUMPDEST POP JUMP JUMPDEST PUSH0 DUP2 MLOAD SWAP1 POP PUSH2 0x1BB DUP2 PUSH2 0x197 JUMP JUMPDEST SWAP3 SWAP2 POP POP JUMP JUMPDEST PUSH0 DUP2 SWAP1 POP SWAP2 SWAP1 POP JUMP JUMPDEST PUSH2 0x1D3 DUP2 PUSH2 0x1C1 JUMP JUMPDEST DUP2 EQ PUSH2 0x1DD JUMPI PUSH0 PUSH0 REVERT JUMPDEST POP JUMP JUMPDEST PUSH0 DUP2 MLOAD SWAP1 POP PUSH2 0x1EE DUP2 PUSH2 0x1CA JUMP JUMPDEST SWAP3 SWAP2 POP POP JUMP JUMPDEST PUSH0 PUSH20 0xFFFFFFFFFFFFFFFFFFFFFFFFFFFFFFFFFFFFFFFF DUP3 AND SWAP1 POP SWAP2 SWAP1 POP JUMP JUMPDEST PUSH0 PUSH2 0x21D DUP3 PUSH2 0x1F4 JUMP JUMPDEST SWAP1 POP SWAP2 SWAP1 POP JUMP JUMPDEST PUSH2 0x22D DUP2 PUSH2 0x213 JUMP JUMPDEST DUP2 EQ PUSH2 0x237 JUMPI PUSH0 PUSH0 REVERT JUMPDEST POP JUMP JUMPDEST PUSH0 DUP2 MLOAD SWAP1 POP PUSH2 0x248 DUP2 PUSH2 0x224 JUMP JUMPDEST SWAP3 SWAP2 POP POP JUMP JUMPDEST PUSH0 PUSH0 PUSH0 PUSH1 0x60 DUP5 DUP7 SUB SLT ISZERO PUSH2 0x265 JUMPI PUSH2 0x264 PUSH2 0x18A JUMP JUMPDEST JUMPDEST PUSH0 PUSH2 0x272 DUP7 DUP3 DUP8 ADD PUSH2 0x1AD JUMP JUMPDEST SWAP4 POP POP PUSH1 0x20 PUSH2 0x283 DUP7 DUP3 DUP8 ADD PUSH2 0x1E0 JUMP JUMPDEST SWAP3 POP POP PUSH1 0x40 PUSH2 0x294 DUP7 DUP3 DUP8 ADD PUSH2 0x23A JUMP JUMPDEST SWAP2 POP POP SWAP3 POP SWAP3 POP SWAP3 JUMP JUMPDEST PUSH0 DUP3 DUP3 MSTORE PUSH1 0x20 DUP3 ADD SWAP1 POP SWAP3 SWAP2 POP POP JUMP JUMPDEST PUSH32 0x7265736F6C7665723D3000000000000000000000000000000000000000000000 PUSH0 DUP3 ADD MSTORE POP JUMP JUMPDEST PUSH0 PUSH2 0x2E2 PUSH1 0xA DUP4 PUSH2 0x29E JUMP JUMPDEST SWAP2 POP PUSH2 0x2ED DUP3 PUSH2 0x2AE JUMP JUMPDEST PUSH1 0x20 DUP3 ADD SWAP1 POP SWAP2 SWAP1 POP JUMP JUMPDEST PUSH0 PUSH1 0x20 DUP3 ADD SWAP1 POP DUP2 DUP2 SUB PUSH0 DUP4 ADD MSTORE PUSH2 0x30F DUP2 PUSH2 0x2D6 JUMP JUMPDEST SWAP1 POP SWAP2 SWAP1 POP JUMP JUMPDEST PUSH32 0x636C6F736554696D653C3D6E6F77000000000000000000000000000000000000 PUSH0 DUP3 ADD MSTORE POP JUMP JUMPDEST PUSH0 PUSH2 0x34A PUSH1 0xE DUP4 PUSH2 0x29E JUMP JUMPDEST SWAP2 POP PUSH2 0x355 DUP3 PUSH2 0x316 JUMP JUMPDEST PUSH1 0x20 DUP3 ADD SWAP1 POP SWAP2 SWAP1 POP JUMP JUMPDEST PUSH0 PUSH1 0x20 DUP3 ADD SWAP1 POP DUP2 DUP2 SUB PUSH0 DUP4 ADD MSTORE PUSH2 0x377 DUP2 PUSH2 0x33E JUMP JUMPDEST SWAP1 POP SWAP2 SWAP1 POP JUMP JUMPDEST PUSH32 0x4E487B7100000000000000000000000000000000000000000000000000000000 PUSH0 MSTORE PUSH1 0x21 PUSH1 0x4 MSTORE PUSH1 0x24 PUSH0 REVERT JUMPDEST PUSH1 0x80 MLOAD PUSH1 0xA0 MLOAD PUSH1 0xC0 MLOAD PUSH1 0xE0 MLOAD PUSH2 0x1277 PUSH2 0x3F3 PUSH0 CODECOPY PUSH0 PUSH2 0x9BF ADD MSTORE PUSH0 DUP2 DUP2 PUSH2 0x454 ADD MSTORE DUP2 DUP2 PUSH2 0x72B ADD MSTORE PUSH2 0x761 ADD MSTORE PUSH0 DUP2 DUP2 PUSH2 0x409 ADD MSTORE PUSH2 0x825 ADD MSTORE PUSH0 PUSH2 0x3E5 ADD MSTORE PUSH2 0x1277 PUSH0 RETURN INVALID PUSH1 0x80 PUSH1 0x40 MSTORE PUSH1 0x4 CALLDATASIZE LT PUSH2 0xF6 JUMPI PUSH0 CALLDATALOAD PUSH1 0xE0 SHR DUP1 PUSH4 0x9916A612 GT PUSH2 0x89 JUMPI DUP1 PUSH4 0xB06A5C52 GT PUSH2 0x58 JUMPI DUP1 PUSH4 0xB06A5C52 EQ PUSH2 0x35D JUMPI DUP1 PUSH4 0xBE040FB0 EQ PUSH2 0x387 JUMPI DUP1 PUSH4 0xC884EF83 EQ PUSH2 0x39D JUMPI DUP1 PUSH4 0xF170E018 EQ PUSH2 0x3D9 JUMPI PUSH2 0x136 JUMP JUMPDEST DUP1 PUSH4 0x9916A612 EQ PUSH2 0x2C5 JUMPI DUP1 PUSH4 0xA0270DBC EQ PUSH2 0x2CF JUMPI DUP1 PUSH4 0xA28D0A91 EQ PUSH2 0x2F7 JUMPI DUP1 PUSH4 0xAF008883 EQ PUSH2 0x333 JUMPI PUSH2 0x136 JUMP JUMPDEST DUP1 PUSH4 0x47535D7B GT PUSH2 0xC5 JUMPI DUP1 PUSH4 0x47535D7B EQ PUSH2 0x22B JUMPI DUP1 PUSH4 0x604F2177 EQ PUSH2 0x255 JUMPI DUP1 PUSH4 0x627749E6 EQ PUSH2 0x271 JUMPI DUP1 PUSH4 0x88BA8DD6 EQ PUSH2 0x29B JUMPI PUSH2 0x136 JUMP JUMPDEST DUP1 PUSH4 0x2D05D3F EQ PUSH2 0x171 JUMPI DUP1 PUSH4 0x4F3BCEC EQ PUSH2 0x19B JUMPI DUP1 PUSH4 0x27793F87 EQ PUSH2 0x1C5 JUMPI DUP1 PUSH4 0x426E1108 EQ PUSH2 0x1EF JUMPI PUSH2 0x136 JUMP JUMPDEST CALLDATASIZE PUSH2 0x136 JUMPI PUSH1 0x40 MLOAD PUSH32 0x8C379A000000000000000000000000000000000000000000000000000000000 DUP2 MSTORE PUSH1 0x4 ADD PUSH2 0x12D SWAP1 PUSH2 0xE5C JUMP JUMPDEST PUSH1 0x40 MLOAD DUP1 SWAP2 SUB SWAP1 REVERT JUMPDEST PUSH1 0x40 MLOAD PUSH32 0x8C379A000000000000000000000000000000000000000000000000000000000 DUP2 MSTORE PUSH1 0x4 ADD PUSH2 0x168 SWAP1 PUSH2 0xE5C JUMP JUMPDEST PUSH1 0x40 MLOAD DUP1 SWAP2 SUB SWAP1 REVERT JUMPDEST CALLVALUE DUP1 ISZERO PUSH2 0x17C JUMPI PUSH0 PUSH0 REVERT JUMPDEST POP PUSH2 0x185 PUSH2 0x3E3 JUMP JUMPDEST PUSH1 0x40 MLOAD PUSH2 0x192 SWAP2 SWAP1 PUSH2 0xEB9 JUMP JUMPDEST PUSH1 0x40 MLOAD DUP1 SWAP2 SUB SWAP1 RETURN JUMPDEST CALLVALUE DUP1 ISZERO PUSH2 0x1A6 JUMPI PUSH0 PUSH0 REVERT JUMPDEST POP PUSH2 0x1AF PUSH2 0x407 JUMP JUMPDEST PUSH1 0x40 MLOAD PUSH2 0x1BC SWAP2 SWAP1 PUSH2 0xEB9 JUMP JUMPDEST PUSH1 0x40 MLOAD DUP1 SWAP2 SUB SWAP1 RETURN JUMPDEST CALLVALUE DUP1 ISZERO PUSH2 0x1D0 JUMPI PUSH0 PUSH0 REVERT JUMPDEST POP PUSH2 0x1D9 PUSH2 0x42B JUMP JUMPDEST PUSH1 0x40 MLOAD PUSH2 0x1E6 SWAP2 SWAP1 PUSH2 0xF45 JUMP JUMPDEST PUSH1 0x40 MLOAD DUP1 SWAP2 SUB SWAP1 RETURN JUMPDEST CALLVALUE DUP1 ISZERO PUSH2 0x1FA JUMPI PUSH0 PUSH0 REVERT JUMPDEST POP PUSH2 0x215 PUSH1 0x4 DUP1 CALLDATASIZE SUB DUP2 ADD SWAP1 PUSH2 0x210 SWAP2 SWAP1 PUSH2 0xF8C JUMP JUMPDEST PUSH2 0x43C JUMP JUMPDEST PUSH1 0x40 MLOAD PUSH2 0x222 SWAP2 SWAP1 PUSH2 0xFCF JUMP JUMPDEST PUSH1 0x40 MLOAD DUP1 SWAP2 SUB SWAP1 RETURN JUMPDEST CALLVALUE DUP1 ISZERO PUSH2 0x236 JUMPI PUSH0 PUSH0 REVERT JUMPDEST POP PUSH2 0x23F PUSH2 0x451 JUMP JUMPDEST PUSH1 0x40 MLOAD PUSH2 0x24C SWAP2 SWAP1 PUSH2 0x1002 JUMP JUMPDEST PUSH1 0x40 MLOAD DUP1 SWAP2 SUB SWAP1 RETURN JUMPDEST PUSH2 0x26F PUSH1 0x4 DUP1 CALLDATASIZE SUB DUP2 ADD SWAP1 PUSH2 0x26A SWAP2 SWAP1 PUSH2 0x103E JUMP JUMPDEST PUSH2 0x4B6 JUMP JUMPDEST STOP JUMPDEST CALLVALUE DUP1 ISZERO PUSH2 0x27C JUMPI PUSH0 PUSH0 REVERT JUMPDEST POP PUSH2 0x285 PUSH2 0x729 JUMP JUMPDEST PUSH1 0x40 MLOAD PUSH2 0x292 SWAP2 SWAP1 PUSH2 0xFCF JUMP JUMPDEST PUSH1 0x40 MLOAD DUP1 SWAP2 SUB SWAP1 RETURN JUMPDEST CALLVALUE DUP1 ISZERO PUSH2 0x2A6 JUMPI PUSH0 PUSH0 REVERT JUMPDEST POP PUSH2 0x2AF PUSH2 0x74D JUMP JUMPDEST PUSH1 0x40 MLOAD PUSH2 0x2BC SWAP2 SWAP1 PUSH2 0xFCF JUMP JUMPDEST PUSH1 0x40 MLOAD DUP1 SWAP2 SUB SWAP1 RETURN JUMPDEST PUSH2 0x2CD PUSH2 0x753 JUMP JUMPDEST STOP JUMPDEST CALLVALUE DUP1 ISZERO PUSH2 0x2DA JUMPI PUSH0 PUSH0 REVERT JUMPDEST POP PUSH2 0x2F5 PUSH1 0x4 DUP1 CALLDATASIZE SUB DUP2 ADD SWAP1 PUSH2 0x2F0 SWAP2 SWAP1 PUSH2 0x103E JUMP JUMPDEST PUSH2 0x75F JUMP JUMPDEST STOP JUMPDEST CALLVALUE DUP1 ISZERO PUSH2 0x302 JUMPI PUSH0 PUSH0 REVERT JUMPDEST POP PUSH2 0x31D PUSH1 0x4 DUP1 CALLDATASIZE SUB DUP2 ADD SWAP1 PUSH2 0x318 SWAP2 SWAP1 PUSH2 0xF8C JUMP JUMPDEST PUSH2 0x9A2 JUMP JUMPDEST PUSH1 0x40 MLOAD PUSH2 0x32A SWAP2 SWAP1 PUSH2 0xFCF JUMP JUMPDEST PUSH1 0x40 MLOAD DUP1 SWAP2 SUB SWAP1 RETURN JUMPDEST CALLVALUE DUP1 ISZERO PUSH2 0x33E JUMPI PUSH0 PUSH0 REVERT JUMPDEST POP PUSH2 0x347 PUSH2 0x9B7 JUMP JUMPDEST PUSH1 0x40 MLOAD PUSH2 0x354 SWAP2 SWAP1 PUSH2 0xFCF JUMP JUMPDEST PUSH1 0x40 MLOAD DUP1 SWAP2 SUB SWAP1 RETURN JUMPDEST CALLVALUE DUP1 ISZERO PUSH2 0x368 JUMPI PUSH0 PUSH0 REVERT JUMPDEST POP PUSH2 0x371 PUSH2 0x9BD JUMP JUMPDEST PUSH1 0x40 MLOAD PUSH2 0x37E SWAP2 SWAP1 PUSH2 0x1081 JUMP JUMPDEST PUSH1 0x40 MLOAD DUP1 SWAP2 SUB SWAP1 RETURN JUMPDEST CALLVALUE DUP1 ISZERO PUSH2 0x392 JUMPI PUSH0 PUSH0 REVERT JUMPDEST POP PUSH2 0x39B PUSH2 0x9E1 JUMP JUMPDEST STOP JUMPDEST CALLVALUE DUP1 ISZERO PUSH2 0x3A8 JUMPI PUSH0 PUSH0 REVERT JUMPDEST POP PUSH2 0x3C3 PUSH1 0x4 DUP1 CALLDATASIZE SUB DUP2 ADD SWAP1 PUSH2 0x3BE SWAP2 SWAP1 PUSH2 0xF8C JUMP JUMPDEST PUSH2 0xD23 JUMP JUMPDEST PUSH1 0x40 MLOAD PUSH2 0x3D0 SWAP2 SWAP1 PUSH2 0x1002 JUMP JUMPDEST PUSH1 0x40 MLOAD DUP1 SWAP2 SUB SWAP1 RETURN JUMPDEST PUSH2 0x3E1 PUSH2 0xD40 JUMP JUMPDEST STOP JUMPDEST PUSH32 0x0 DUP2 JUMP JUMPDEST PUSH32 0x0 DUP2 JUMP JUMPDEST PUSH0 PUSH0 SWAP1 SLOAD SWAP1 PUSH2 0x100 EXP SWAP1 DIV PUSH1 0xFF AND DUP2 JUMP JUMPDEST PUSH1 0x4 PUSH1 0x20 MSTORE DUP1 PUSH0 MSTORE PUSH1 0x40 PUSH0 KECCAK256 PUSH0 SWAP2 POP SWAP1 POP SLOAD DUP2 JUMP JUMPDEST PUSH0 PUSH32 0x0 TIMESTAMP LT DUP1 ISZERO PUSH2 0x4B1 JUMPI POP PUSH0 PUSH1 0x2 DUP2 GT ISZERO PUSH2 0x48F JUMPI PUSH2 0x48E PUSH2 0xED2 JUMP JUMPDEST JUMPDEST PUSH0 PUSH0 SWAP1 SLOAD SWAP1 PUSH2 0x100 EXP SWAP1 DIV PUSH1 0xFF AND PUSH1 0x2 DUP2 GT ISZERO PUSH2 0x4AF JUMPI PUSH2 0x4AE PUSH2 0xED2 JUMP JUMPDEST JUMPDEST EQ JUMPDEST SWAP1 POP SWAP1 JUMP JUMPDEST PUSH2 0x4BE PUSH2 0x451 JUMP JUMPDEST PUSH2 0x4F4 JUMPI PUSH1 0x40 MLOAD PUSH32 0xC02D38CC00000000000000000000000000000000000000000000000000000000 DUP2 MSTORE PUSH1 0x4 ADD PUSH1 0x40 MLOAD DUP1 SWAP2 SUB SWAP1 REVERT JUMPDEST PUSH1 0x1 PUSH1 0x2 DUP2 GT ISZERO PUSH2 0x508 JUMPI PUSH2 0x507 PUSH2 0xED2 JUMP JUMPDEST JUMPDEST DUP2 PUSH1 0x2 DUP2 GT ISZERO PUSH2 0x51B JUMPI PUSH2 0x51A PUSH2 0xED2 JUMP JUMPDEST JUMPDEST EQ ISZERO DUP1 ISZERO PUSH2 0x54D JUMPI POP PUSH1 0x2 DUP1 DUP2 GT ISZERO PUSH2 0x537 JUMPI PUSH2 0x536 PUSH2 0xED2 JUMP JUMPDEST JUMPDEST DUP2 PUSH1 0x2 DUP2 GT ISZERO PUSH2 0x54A JUMPI PUSH2 0x549 PUSH2 0xED2 JUMP JUMPDEST JUMPDEST EQ ISZERO JUMPDEST ISZERO PUSH2 0x584 JUMPI PUSH1 0x40 MLOAD PUSH32 0xC74A206D00000000000000000000000000000000000000000000000000000000 DUP2 MSTORE PUSH1 0x4 ADD PUSH1 0x40 MLOAD DUP1 SWAP2 SUB SWAP1 REVERT JUMPDEST PUSH0 CALLVALUE SUB PUSH2 0x5BD JUMPI PUSH1 0x40 MLOAD PUSH32 0xCBCA5AA200000000000000000000000000000000000000000000000000000000 DUP2 MSTORE PUSH1 0x4 ADD PUSH1 0x40 MLOAD DUP1 SWAP2 SUB SWAP1 REVERT JUMPDEST PUSH1 0x1 PUSH1 0x2 DUP2 GT ISZERO PUSH2 0x5D1 JUMPI PUSH2 0x5D0 PUSH2 0xED2 JUMP JUMPDEST JUMPDEST DUP2 PUSH1 0x2 DUP2 GT ISZERO PUSH2 0x5E4 JUMPI PUSH2 0x5E3 PUSH2 0xED2 JUMP JUMPDEST JUMPDEST SUB PUSH2 0x659 JUMPI CALLVALUE PUSH1 0x3 PUSH0 CALLER PUSH20 0xFFFFFFFFFFFFFFFFFFFFFFFFFFFFFFFFFFFFFFFF AND PUSH20 0xFFFFFFFFFFFFFFFFFFFFFFFFFFFFFFFFFFFFFFFF AND DUP2 MSTORE PUSH1 0x20 ADD SWAP1 DUP2 MSTORE PUSH1 0x20 ADD PUSH0 KECCAK256 PUSH0 DUP3 DUP3 SLOAD PUSH2 0x635 SWAP2 SWAP1 PUSH2 0x10C7 JUMP JUMPDEST SWAP3 POP POP DUP2 SWAP1 SSTORE POP CALLVALUE PUSH1 0x1 PUSH0 DUP3 DUP3 SLOAD PUSH2 0x64D SWAP2 SWAP1 PUSH2 0x10C7 JUMP JUMPDEST SWAP3 POP POP DUP2 SWAP1 SSTORE POP PUSH2 0x6C5 JUMP JUMPDEST CALLVALUE PUSH1 0x4 PUSH0 CALLER PUSH20 0xFFFFFFFFFFFFFFFFFFFFFFFFFFFFFFFFFFFFFFFF AND PUSH20 0xFFFFFFFFFFFFFFFFFFFFFFFFFFFFFFFFFFFFFFFF AND DUP2 MSTORE PUSH1 0x20 ADD SWAP1 DUP2 MSTORE PUSH1 0x20 ADD PUSH0 KECCAK256 PUSH0 DUP3 DUP3 SLOAD PUSH2 0x6A5 SWAP2 SWAP1 PUSH2 0x10C7 JUMP JUMPDEST SWAP3 POP POP DUP2 SWAP1 SSTORE POP CALLVALUE PUSH1 0x2 PUSH0 DUP3 DUP3 SLOAD PUSH2 0x6BD SWAP2 SWAP1 PUSH2 0x10C7 JUMP JUMPDEST SWAP3 POP POP DUP2 SWAP1 SSTORE POP JUMPDEST DUP1 PUSH1 0x2 DUP2 GT ISZERO PUSH2 0x6D8 JUMPI PUSH2 0x6D7 PUSH2 0xED2 JUMP JUMPDEST JUMPDEST CALLER PUSH20 0xFFFFFFFFFFFFFFFFFFFFFFFFFFFFFFFFFFFFFFFF AND PUSH32 0x3CF14181AE25669A913D72411736FC5C01F538FA503E963B0B2E56BCEFB3EDAF CALLVALUE PUSH1 0x40 MLOAD PUSH2 0x71E SWAP2 SWAP1 PUSH2 0xFCF JUMP JUMPDEST PUSH1 0x40 MLOAD DUP1 SWAP2 SUB SWAP1 LOG3 POP JUMP JUMPDEST PUSH32 0x0 DUP2 JUMP JUMPDEST PUSH1 0x1 SLOAD DUP2 JUMP JUMPDEST PUSH2 0x75D PUSH1 0x1 PUSH2 0x4B6 JUMP JUMPDEST JUMP JUMPDEST PUSH32 0x0 TIMESTAMP LT ISZERO PUSH2 0x7B9 JUMPI PUSH1 0x40 MLOAD PUSH32 0xA8A9EB6900000000000000000000000000000000000000000000000000000000 DUP2 MSTORE PUSH1 0x4 ADD PUSH1 0x40 MLOAD DUP1 SWAP2 SUB SWAP1 REVERT JUMPDEST PUSH0 PUSH1 0x2 DUP2 GT ISZERO PUSH2 0x7CC JUMPI PUSH2 0x7CB PUSH2 0xED2 JUMP JUMPDEST JUMPDEST PUSH0 PUSH0 SWAP1 SLOAD SWAP1 PUSH2 0x100 EXP SWAP1 DIV PUSH1 0xFF AND PUSH1 0x2 DUP2 GT ISZERO PUSH2 0x7EC JUMPI PUSH2 0x7EB PUSH2 0xED2 JUMP JUMPDEST JUMPDEST EQ PUSH2 0x823 JUMPI PUSH1 0x40 MLOAD PUSH32 0x6D5703C200000000000000000000000000000000000000000000000000000000 DUP2 MSTORE PUSH1 0x4 ADD PUSH1 0x40 MLOAD DUP1 SWAP2 SUB SWAP1 REVERT JUMPDEST PUSH32 0x0 PUSH20 0xFFFFFFFFFFFFFFFFFFFFFFFFFFFFFFFFFFFFFFFF AND CALLER PUSH20 0xFFFFFFFFFFFFFFFFFFFFFFFFFFFFFFFFFFFFFFFF AND EQ PUSH2 0x8A8 JUMPI PUSH1 0x40 MLOAD PUSH32 0xBA2A9FC200000000000000000000000000000000000000000000000000000000 DUP2 MSTORE PUSH1 0x4 ADD PUSH1 0x40 MLOAD DUP1 SWAP2 SUB SWAP1 REVERT JUMPDEST PUSH1 0x1 PUSH1 0x2 DUP2 GT ISZERO PUSH2 0x8BC JUMPI PUSH2 0x8BB PUSH2 0xED2 JUMP JUMPDEST JUMPDEST DUP2 PUSH1 0x2 DUP2 GT ISZERO PUSH2 0x8CF JUMPI PUSH2 0x8CE PUSH2 0xED2 JUMP JUMPDEST JUMPDEST EQ ISZERO DUP1 ISZERO PUSH2 0x901 JUMPI POP PUSH1 0x2 DUP1 DUP2 GT ISZERO PUSH2 0x8EB JUMPI PUSH2 0x8EA PUSH2 0xED2 JUMP JUMPDEST JUMPDEST DUP2 PUSH1 0x2 DUP2 GT ISZERO PUSH2 0x8FE JUMPI PUSH2 0x8FD PUSH2 0xED2 JUMP JUMPDEST JUMPDEST EQ ISZERO JUMPDEST ISZERO PUSH2 0x938 JUMPI PUSH1 0x40 MLOAD PUSH32 0xC74A206D00000000000000000000000000000000000000000000000000000000 DUP2 MSTORE PUSH1 0x4 ADD PUSH1 0x40 MLOAD DUP1 SWAP2 SUB SWAP1 REVERT JUMPDEST DUP1 PUSH0 PUSH0 PUSH2 0x100 EXP DUP2 SLOAD DUP2 PUSH1 0xFF MUL NOT AND SWAP1 DUP4 PUSH1 0x2 DUP2 GT ISZERO PUSH2 0x95B JUMPI PUSH2 0x95A PUSH2 0xED2 JUMP JUMPDEST JUMPDEST MUL OR SWAP1 SSTORE POP DUP1 PUSH1 0x2 DUP2 GT ISZERO PUSH2 0x973 JUMPI PUSH2 0x972 PUSH2 0xED2 JUMP JUMPDEST JUMPDEST PUSH32 0x5E186F09B9C93491F14E277EEA7FAA5DE6A2D4BDA75A79AF7A3684FBFB42DA60 PUSH1 0x40 MLOAD PUSH1 0x40 MLOAD DUP1 SWAP2 SUB SWAP1 LOG2 POP JUMP JUMPDEST PUSH1 0x3 PUSH1 0x20 MSTORE DUP1 PUSH0 MSTORE PUSH1 0x40 PUSH0 KECCAK256 PUSH0 SWAP2 POP SWAP1 POP SLOAD DUP2 JUMP JUMPDEST PUSH1 0x2 SLOAD DUP2 JUMP JUMPDEST PUSH32 0x0 DUP2 JUMP JUMPDEST PUSH0 PUSH1 0x2 DUP2 GT ISZERO PUSH2 0x9F4 JUMPI PUSH2 0x9F3 PUSH2 0xED2 JUMP JUMPDEST JUMPDEST PUSH0 PUSH0 SWAP1 SLOAD SWAP1 PUSH2 0x100 EXP SWAP1 DIV PUSH1 0xFF AND PUSH1 0x2 DUP2 GT ISZERO PUSH2 0xA14 JUMPI PUSH2 0xA13 PUSH2 0xED2 JUMP JUMPDEST JUMPDEST SUB PUSH2 0xA4B JUMPI PUSH1 0x40 MLOAD PUSH32 0xA8A9EB6900000000000000000000000000000000000000000000000000000000 DUP2 MSTORE PUSH1 0x4 ADD PUSH1 0x40 MLOAD DUP1 SWAP2 SUB SWAP1 REVERT JUMPDEST PUSH1 0x5 PUSH0 CALLER PUSH20 0xFFFFFFFFFFFFFFFFFFFFFFFFFFFFFFFFFFFFFFFF AND PUSH20 0xFFFFFFFFFFFFFFFFFFFFFFFFFFFFFFFFFFFFFFFF AND DUP2 MSTORE PUSH1 0x20 ADD SWAP1 DUP2 MSTORE PUSH1 0x20 ADD PUSH0 KECCAK256 PUSH0 SWAP1 SLOAD SWAP1 PUSH2 0x100 EXP SWAP1 DIV PUSH1 0xFF AND ISZERO PUSH2 0xACC JUMPI PUSH1 0x40 MLOAD PUSH32 0x646CF55800000000000000000000000000000000000000000000000000000000 DUP2 MSTORE PUSH1 0x4 ADD PUSH1 0x40 MLOAD DUP1 SWAP2 SUB SWAP1 REVERT JUMPDEST PUSH0 PUSH1 0x3 PUSH0 CALLER PUSH20 0xFFFFFFFFFFFFFFFFFFFFFFFFFFFFFFFFFFFFFFFF AND PUSH20 0xFFFFFFFFFFFFFFFFFFFFFFFFFFFFFFFFFFFFFFFF AND DUP2 MSTORE PUSH1 0x20 ADD SWAP1 DUP2 MSTORE PUSH1 0x20 ADD PUSH0 KECCAK256 SLOAD SWAP1 POP PUSH0 PUSH1 0x4 PUSH0 CALLER PUSH20 0xFFFFFFFFFFFFFFFFFFFFFFFFFFFFFFFFFFFFFFFF AND PUSH20 0xFFFFFFFFFFFFFFFFFFFFFFFFFFFFFFFFFFFFFFFF AND DUP2 MSTORE PUSH1 0x20 ADD SWAP1 DUP2 MSTORE PUSH1 0x20 ADD PUSH0 KECCAK256 SLOAD SWAP1 POP PUSH0 DUP2 DUP4 PUSH2 0xB5B SWAP2 SWAP1 PUSH2 0x10C7 JUMP JUMPDEST SWAP1 POP PUSH0 DUP2 SUB PUSH2 0xB96 JUMPI PUSH1 0x40 MLOAD PUSH32 0x9890AF6000000000000000000000000000000000000000000000000000000000 DUP2 MSTORE PUSH1 0x4 ADD PUSH1 0x40 MLOAD DUP1 SWAP2 SUB SWAP1 REVERT JUMPDEST PUSH1 0x1 PUSH1 0x5 PUSH0 CALLER PUSH20 0xFFFFFFFFFFFFFFFFFFFFFFFFFFFFFFFFFFFFFFFF AND PUSH20 0xFFFFFFFFFFFFFFFFFFFFFFFFFFFFFFFFFFFFFFFF AND DUP2 MSTORE PUSH1 0x20 ADD SWAP1 DUP2 MSTORE PUSH1 0x20 ADD PUSH0 KECCAK256 PUSH0 PUSH2 0x100 EXP DUP2 SLOAD DUP2 PUSH1 0xFF MUL NOT AND SWAP1 DUP4 ISZERO ISZERO MUL OR SWAP1 SSTORE POP PUSH0 PUSH1 0x2 SLOAD PUSH1 0x1 SLOAD PUSH2 0xBFC SWAP2 SWAP1 PUSH2 0x10C7 JUMP JUMPDEST SWAP1 POP PUSH0 PUSH1 0x1 PUSH1 0x2 DUP2 GT ISZERO PUSH2 0xC13 JUMPI PUSH2 0xC12 PUSH2 0xED2 JUMP JUMPDEST JUMPDEST PUSH0 PUSH0 SWAP1 SLOAD SWAP1 PUSH2 0x100 EXP SWAP1 DIV PUSH1 0xFF AND PUSH1 0x2 DUP2 GT ISZERO PUSH2 0xC33 JUMPI PUSH2 0xC32 PUSH2 0xED2 JUMP JUMPDEST JUMPDEST EQ PUSH2 0xC40 JUMPI PUSH1 0x2 SLOAD PUSH2 0xC44 JUMP JUMPDEST PUSH1 0x1 SLOAD JUMPDEST SWAP1 POP PUSH0 PUSH0 DUP3 SUB PUSH2 0xC56 JUMPI DUP4 SWAP1 POP PUSH2 0xCC3 JUMP JUMPDEST PUSH0 PUSH1 0x1 PUSH1 0x2 DUP2 GT ISZERO PUSH2 0xC6B JUMPI PUSH2 0xC6A PUSH2 0xED2 JUMP JUMPDEST JUMPDEST PUSH0 PUSH0 SWAP1 SLOAD SWAP1 PUSH2 0x100 EXP SWAP1 DIV PUSH1 0xFF AND PUSH1 0x2 DUP2 GT ISZERO PUSH2 0xC8B JUMPI PUSH2 0xC8A PUSH2 0xED2 JUMP JUMPDEST JUMPDEST EQ PUSH2 0xC96 JUMPI DUP6 PUSH2 0xC98 JUMP JUMPDEST DUP7 JUMPDEST SWAP1 POP PUSH0 DUP2 EQ PUSH2 0xCBD JUMPI DUP3 DUP5 DUP3 PUSH2 0xCAE SWAP2 SWAP1 PUSH2 0x10FA JUMP JUMPDEST PUSH2 0xCB8 SWAP2 SWAP1 PUSH2 0x1168 JUMP JUMPDEST PUSH2 0xCBF JUMP JUMPDEST PUSH0 JUMPDEST SWAP2 POP POP JUMPDEST PUSH2 0xCCD CALLER DUP3 PUSH2 0xD4C JUMP JUMPDEST CALLER PUSH20 0xFFFFFFFFFFFFFFFFFFFFFFFFFFFFFFFFFFFFFFFF AND PUSH32 0x4896181FF8F4543CC00DB9FE9B6FB7E6F032B7EB772C72AB1EC1B4D2E03B9369 DUP3 PUSH1 0x40 MLOAD PUSH2 0xD13 SWAP2 SWAP1 PUSH2 0xFCF JUMP JUMPDEST PUSH1 0x40 MLOAD DUP1 SWAP2 SUB SWAP1 LOG2 POP POP POP POP POP POP JUMP JUMPDEST PUSH1 0x5 PUSH1 0x20 MSTORE DUP1 PUSH0 MSTORE PUSH1 0x40 PUSH0 KECCAK256 PUSH0 SWAP2 POP SLOAD SWAP1 PUSH2 0x100 EXP SWAP1 DIV PUSH1 0xFF AND DUP2 JUMP JUMPDEST PUSH2 0xD4A PUSH1 0x2 PUSH2 0x4B6 JUMP JUMPDEST JUMP JUMPDEST PUSH0 DUP2 SUB ISZERO PUSH2 0xDFE JUMPI PUSH0 DUP3 PUSH20 0xFFFFFFFFFFFFFFFFFFFFFFFFFFFFFFFFFFFFFFFF AND DUP3 PUSH1 0x40 MLOAD PUSH2 0xD79 SWAP1 PUSH2 0x11C5 JUMP JUMPDEST PUSH0 PUSH1 0x40 MLOAD DUP1 DUP4 SUB DUP2 DUP6 DUP8 GAS CALL SWAP3 POP POP POP RETURNDATASIZE DUP1 PUSH0 DUP2 EQ PUSH2 0xDB3 JUMPI PUSH1 0x40 MLOAD SWAP2 POP PUSH1 0x1F NOT PUSH1 0x3F RETURNDATASIZE ADD AND DUP3 ADD PUSH1 0x40 MSTORE RETURNDATASIZE DUP3 MSTORE RETURNDATASIZE PUSH0 PUSH1 0x20 DUP5 ADD RETURNDATACOPY PUSH2 0xDB8 JUMP JUMPDEST PUSH1 0x60 SWAP2 POP JUMPDEST POP POP SWAP1 POP DUP1 PUSH2 0xDFC JUMPI PUSH1 0x40 MLOAD PUSH32 0x8C379A000000000000000000000000000000000000000000000000000000000 DUP2 MSTORE PUSH1 0x4 ADD PUSH2 0xDF3 SWAP1 PUSH2 0x1223 JUMP JUMPDEST PUSH1 0x40 MLOAD DUP1 SWAP2 SUB SWAP1 REVERT JUMPDEST POP JUMPDEST POP POP JUMP JUMPDEST PUSH0 DUP3 DUP3 MSTORE PUSH1 0x20 DUP3 ADD SWAP1 POP SWAP3 SWAP2 POP POP JUMP JUMPDEST PUSH32 0x757365207374616B652829000000000000000000000000000000000000000000 PUSH0 DUP3 ADD MSTORE POP JUMP JUMPDEST PUSH0 PUSH2 0xE46 PUSH1 0xB DUP4 PUSH2 0xE02 JUMP JUMPDEST SWAP2 POP PUSH2 0xE51 DUP3 PUSH2 0xE12 JUMP JUMPDEST PUSH1 0x20 DUP3 ADD SWAP1 POP SWAP2 SWAP1 POP JUMP JUMPDEST PUSH0 PUSH1 0x20 DUP3 ADD SWAP1 POP DUP2 DUP2 SUB PUSH0 DUP4 ADD MSTORE PUSH2 0xE73 DUP2 PUSH2 0xE3A JUMP JUMPDEST SWAP1 POP SWAP2 SWAP1 POP JUMP JUMPDEST PUSH0 PUSH20 0xFFFFFFFFFFFFFFFFFFFFFFFFFFFFFFFFFFFFFFFF DUP3 AND SWAP1 POP SWAP2 SWAP1 POP JUMP JUMPDEST PUSH0 PUSH2 0xEA3 DUP3 PUSH2 0xE7A JUMP JUMPDEST SWAP1 POP SWAP2 SWAP1 POP JUMP JUMPDEST PUSH2 0xEB3 DUP2 PUSH2 0xE99 JUMP JUMPDEST DUP3 MSTORE POP POP JUMP JUMPDEST PUSH0 PUSH1 0x20 DUP3 ADD SWAP1 POP PUSH2 0xECC PUSH0 DUP4 ADD DUP5 PUSH2 0xEAA JUMP JUMPDEST SWAP3 SWAP2 POP POP JUMP JUMPDEST PUSH32 0x4E487B7100000000000000000000000000000000000000000000000000000000 PUSH0 MSTORE PUSH1 0x21 PUSH1 0x4 MSTORE PUSH1 0x24 PUSH0 REVERT JUMPDEST PUSH1 0x3 DUP2 LT PUSH2 0xF10 JUMPI PUSH2 0xF0F PUSH2 0xED2 JUMP JUMPDEST JUMPDEST POP JUMP JUMPDEST PUSH0 DUP2 SWAP1 POP PUSH2 0xF20 DUP3 PUSH2 0xEFF JUMP JUMPDEST SWAP2 SWAP1 POP JUMP JUMPDEST PUSH0 PUSH2 0xF2F DUP3 PUSH2 0xF13 JUMP JUMPDEST SWAP1 POP SWAP2 SWAP1 POP JUMP JUMPDEST PUSH2 0xF3F DUP2 PUSH2 0xF25 JUMP JUMPDEST DUP3 MSTORE POP POP JUMP JUMPDEST PUSH0 PUSH1 0x20 DUP3 ADD SWAP1 POP PUSH2 0xF58 PUSH0 DUP4 ADD DUP5 PUSH2 0xF36 JUMP JUMPDEST SWAP3 SWAP2 POP POP JUMP JUMPDEST PUSH0 PUSH0 REVERT JUMPDEST PUSH2 0xF6B DUP2 PUSH2 0xE99 JUMP JUMPDEST DUP2 EQ PUSH2 0xF75 JUMPI PUSH0 PUSH0 REVERT JUMPDEST POP JUMP JUMPDEST PUSH0 DUP2 CALLDATALOAD SWAP1 POP PUSH2 0xF86 DUP2 PUSH2 0xF62 JUMP JUMPDEST SWAP3 SWAP2 POP POP JUMP JUMPDEST PUSH0 PUSH1 0x20 DUP3 DUP5 SUB SLT ISZERO PUSH2 0xFA1 JUMPI PUSH2 0xFA0 PUSH2 0xF5E JUMP JUMPDEST JUMPDEST PUSH0 PUSH2 0xFAE DUP5 DUP3 DUP6 ADD PUSH2 0xF78 JUMP JUMPDEST SWAP2 POP POP SWAP3 SWAP2 POP POP JUMP JUMPDEST PUSH0 DUP2 SWAP1 POP SWAP2 SWAP1 POP JUMP JUMPDEST PUSH2 0xFC9 DUP2 PUSH2 0xFB7 JUMP JUMPDEST DUP3 MSTORE POP POP JUMP JUMPDEST PUSH0 PUSH1 0x20 DUP3 ADD SWAP1 POP PUSH2 0xFE2 PUSH0 DUP4 ADD DUP5 PUSH2 0xFC0 JUMP JUMPDEST SWAP3 SWAP2 POP POP JUMP JUMPDEST PUSH0 DUP2 ISZERO ISZERO SWAP1 POP SWAP2 SWAP1 POP JUMP JUMPDEST PUSH2 0xFFC DUP2 PUSH2 0xFE8 JUMP JUMPDEST DUP3 MSTORE POP POP JUMP JUMPDEST PUSH0 PUSH1 0x20 DUP3 ADD SWAP1 POP PUSH2 0x1015 PUSH0 DUP4 ADD DUP5 PUSH2 0xFF3 JUMP JUMPDEST SWAP3 SWAP2 POP POP JUMP JUMPDEST PUSH1 0x3 DUP2 LT PUSH2 0x1027 JUMPI PUSH0 PUSH0 REVERT JUMPDEST POP JUMP JUMPDEST PUSH0 DUP2 CALLDATALOAD SWAP1 POP PUSH2 0x1038 DUP2 PUSH2 0x101B JUMP JUMPDEST SWAP3 SWAP2 POP POP JUMP JUMPDEST PUSH0 PUSH1 0x20 DUP3 DUP5 SUB SLT ISZERO PUSH2 0x1053 JUMPI PUSH2 0x1052 PUSH2 0xF5E JUMP JUMPDEST JUMPDEST PUSH0 PUSH2 0x1060 DUP5 DUP3 DUP6 ADD PUSH2 0x102A JUMP JUMPDEST SWAP2 POP POP SWAP3 SWAP2 POP POP JUMP JUMPDEST PUSH0 DUP2 SWAP1 POP SWAP2 SWAP1 POP JUMP JUMPDEST PUSH2 0x107B DUP2 PUSH2 0x1069 JUMP JUMPDEST DUP3 MSTORE POP POP JUMP JUMPDEST PUSH0 PUSH1 0x20 DUP3 ADD SWAP1 POP PUSH2 0x1094 PUSH0 DUP4 ADD DUP5 PUSH2 0x1072 JUMP JUMPDEST SWAP3 SWAP2 POP POP JUMP JUMPDEST PUSH32 0x4E487B7100000000000000000000000000000000000000000000000000000000 PUSH0 MSTORE PUSH1 0x11 PUSH1 0x4 MSTORE PUSH1 0x24 PUSH0 REVERT JUMPDEST PUSH0 PUSH2 0x10D1 DUP3 PUSH2 0xFB7 JUMP JUMPDEST SWAP2 POP PUSH2 0x10DC DUP4 PUSH2 0xFB7 JUMP JUMPDEST SWAP3 POP DUP3 DUP3 ADD SWAP1 POP DUP1 DUP3 GT ISZERO PUSH2 0x10F4 JUMPI PUSH2 0x10F3 PUSH2 0x109A JUMP JUMPDEST JUMPDEST SWAP3 SWAP2 POP POP JUMP JUMPDEST PUSH0 PUSH2 0x1104 DUP3 PUSH2 0xFB7 JUMP JUMPDEST SWAP2 POP PUSH2 0x110F DUP4 PUSH2 0xFB7 JUMP JUMPDEST SWAP3 POP DUP3 DUP3 MUL PUSH2 0x111D DUP2 PUSH2 0xFB7 JUMP JUMPDEST SWAP2 POP DUP3 DUP3 DIV DUP5 EQ DUP4 ISZERO OR PUSH2 0x1134 JUMPI PUSH2 0x1133 PUSH2 0x109A JUMP JUMPDEST JUMPDEST POP SWAP3 SWAP2 POP POP JUMP JUMPDEST PUSH32 0x4E487B7100000000000000000000000000000000000000000000000000000000 PUSH0 MSTORE PUSH1 0x12 PUSH1 0x4 MSTORE PUSH1 0x24 PUSH0 REVERT JUMPDEST PUSH0 PUSH2 0x1172 DUP3 PUSH2 0xFB7 JUMP JUMPDEST SWAP2 POP PUSH2 0x117D DUP4 PUSH2 0xFB7 JUMP JUMPDEST SWAP3 POP DUP3 PUSH2 0x118D JUMPI PUSH2 0x118C PUSH2 0x113B JUMP JUMPDEST JUMPDEST DUP3 DUP3 DIV SWAP1 POP SWAP3 SWAP2 POP POP JUMP JUMPDEST PUSH0 DUP2 SWAP1 POP SWAP3 SWAP2 POP POP JUMP JUMPDEST POP JUMP JUMPDEST PUSH0 PUSH2 0x11B0 PUSH0 DUP4 PUSH2 0x1198 JUMP JUMPDEST SWAP2 POP PUSH2 0x11BB DUP3 PUSH2 0x11A2 JUMP JUMPDEST PUSH0 DUP3 ADD SWAP1 POP SWAP2 SWAP1 POP JUMP JUMPDEST PUSH0 PUSH2 0x11CF DUP3 PUSH2 0x11A5 JUMP JUMPDEST SWAP2 POP DUP2 SWAP1 POP SWAP2 SWAP1 POP JUMP JUMPDEST PUSH32 0x455448207472616E73666572206661696C656400000000000000000000000000 PUSH0 DUP3 ADD MSTORE POP JUMP JUMPDEST PUSH0 PUSH2 0x120D PUSH1 0x13 DUP4 PUSH2 0xE02 JUMP JUMPDEST SWAP2 POP PUSH2 0x1218 DUP3 PUSH2 0x11D9 JUMP JUMPDEST PUSH1 0x20 DUP3 ADD SWAP1 POP SWAP2 SWAP1 POP JUMP JUMPDEST PUSH0 PUSH1 0x20 DUP3 ADD SWAP1 POP DUP2 DUP2 SUB PUSH0 DUP4 ADD MSTORE PUSH2 0x123A DUP2 PUSH2 0x1201 JUMP JUMPDEST SWAP1 POP SWAP2 SWAP1 POP JUMP INVALID LOG2 PUSH5 0x6970667358 0x22 SLT KECCAK256 CHAINID LOG2 EXTCODESIZE PUSH9 0xE93F105282A06D6C6 PUSH12 0x3C7FD2AB07B5E2AC73EF020B 0x2B SWAP5 0xD2 RJUMP 0xDDB9 PUSH5 0x736F6C6343 STOP ADDMOD 0x1E STOP CALLER "
		},
		"gasEstimates": {
			"creation": {
				"codeDepositCost": "945400",
				"executionCost": "infinite",
				"totalCost": "infinite"
			},
			"external": {
				"": "490",
				"claimed(address)": "2899",
				"closeTime()": "infinite",
				"creator()": "infinite",
				"isOpen()": "infinite",
				"outcome()": "2621",
				"questionId()": "infinite",
				"redeem()": "infinite",
				"resolve(uint8)": "infinite",
				"resolver()": "infinite",
				"stake(uint8)": "infinite",
				"stakeNo(address)": "2892",
				"stakeNoSide()": "infinite",
				"stakeYes(address)": "2869",
				"stakeYesSide()": "infinite",
				"totalNo()": "2514",
				"totalYes()": "2514"
			},
			"internal": {
				"_sendETH(address,uint256)": "infinite"
			}
		},
		"methodIdentifiers": {
			"claimed(address)": "c884ef83",
			"closeTime()": "627749e6",
			"creator()": "02d05d3f",
			"isOpen()": "47535d7b",
			"outcome()": "27793f87",
			"questionId()": "b06a5c52",
			"redeem()": "be040fb0",
			"resolve(uint8)": "a0270dbc",
			"resolver()": "04f3bcec",
			"stake(uint8)": "604f2177",
			"stakeNo(address)": "426e1108",
			"stakeNoSide()": "f170e018",
			"stakeYes(address)": "a28d0a91",
			"stakeYesSide()": "9916a612",
			"totalNo()": "af008883",
			"totalYes()": "88ba8dd6"
		}
	},
	"abi": [
		{
			"inputs": [
				{
					"internalType": "bytes32",
					"name": "_questionId",
					"type": "bytes32"
				},
				{
					"internalType": "uint256",
					"name": "_closeTime",
					"type": "uint256"
				},
				{
					"internalType": "address",
					"name": "_resolver",
					"type": "address"
				}
			],
			"stateMutability": "nonpayable",
			"type": "constructor"
		},
		{
			"inputs": [],
			"name": "AlreadyClaimed",
			"type": "error"
		},
		{
			"inputs": [],
			"name": "AlreadyResolved",
			"type": "error"
		},
		{
			"inputs": [],
			"name": "AmountZero",
			"type": "error"
		},
		{
			"inputs": [],
			"name": "InvalidOutcome",
			"type": "error"
		},
		{
			"inputs": [],
			"name": "MarketNotClosed",
			"type": "error"
		},
		{
			"inputs": [],
			"name": "MarketNotOpen",
			"type": "error"
		},
		{
			"inputs": [],
			"name": "NotResolver",
			"type": "error"
		},
		{
			"inputs": [],
			"name": "NothingToRedeem",
			"type": "error"
		},
		{
			"anonymous": false,
			"inputs": [
				{
					"indexed": true,
					"internalType": "address",
					"name": "trader",
					"type": "address"
				},
				{
					"indexed": false,
					"internalType": "uint256",
					"name": "payout",
					"type": "uint256"
				}
			],
			"name": "Redeemed",
			"type": "event"
		},
		{
			"anonymous": false,
			"inputs": [
				{
					"indexed": true,
					"internalType": "enum PredictionMarket.Outcome",
					"name": "outcome",
					"type": "uint8"
				}
			],
			"name": "Resolved",
			"type": "event"
		},
		{
			"anonymous": false,
			"inputs": [
				{
					"indexed": true,
					"internalType": "address",
					"name": "trader",
					"type": "address"
				},
				{
					"indexed": true,
					"internalType": "enum PredictionMarket.Outcome",
					"name": "side",
					"type": "uint8"
				},
				{
					"indexed": false,
					"internalType": "uint256",
					"name": "amount",
					"type": "uint256"
				}
			],
			"name": "Staked",
			"type": "event"
		},
		{
			"stateMutability": "payable",
			"type": "fallback"
		},
		{
			"inputs": [
				{
					"internalType": "address",
					"name": "",
					"type": "address"
				}
			],
			"name": "claimed",
			"outputs": [
				{
					"internalType": "bool",
					"name": "",
					"type": "bool"
				}
			],
			"stateMutability": "view",
			"type": "function"
		},
		{
			"inputs": [],
			"name": "closeTime",
			"outputs": [
				{
					"internalType": "uint256",
					"name": "",
					"type": "uint256"
				}
			],
			"stateMutability": "view",
			"type": "function"
		},
		{
			"inputs": [],
			"name": "creator",
			"outputs": [
				{
					"internalType": "address",
					"name": "",
					"type": "address"
				}
			],
			"stateMutability": "view",
			"type": "function"
		},
		{
			"inputs": [],
			"name": "isOpen",
			"outputs": [
				{
					"internalType": "bool",
					"name": "",
					"type": "bool"
				}
			],
			"stateMutability": "view",
			"type": "function"
		},
		{
			"inputs": [],
			"name": "outcome",
			"outputs": [
				{
					"internalType": "enum PredictionMarket.Outcome",
					"name": "",
					"type": "uint8"
				}
			],
			"stateMutability": "view",
			"type": "function"
		},
		{
			"inputs": [],
			"name": "questionId",
			"outputs": [
				{
					"internalType": "bytes32",
					"name": "",
					"type": "bytes32"
				}
			],
			"stateMutability": "view",
			"type": "function"
		},
		{
			"inputs": [],
			"name": "redeem",
			"outputs": [],
			"stateMutability": "nonpayable",
			"type": "function"
		},
		{
			"inputs": [
				{
					"internalType": "enum PredictionMarket.Outcome",
					"name": "_outcome",
					"type": "uint8"
				}
			],
			"name": "resolve",
			"outputs": [],
			"stateMutability": "nonpayable",
			"type": "function"
		},
		{
			"inputs": [],
			"name": "resolver",
			"outputs": [
				{
					"internalType": "address",
					"name": "",
					"type": "address"
				}
			],
			"stateMutability": "view",
			"type": "function"
		},
		{
			"inputs": [
				{
					"internalType": "enum PredictionMarket.Outcome",
					"name": "side",
					"type": "uint8"
				}
			],
			"name": "stake",
			"outputs": [],
			"stateMutability": "payable",
			"type": "function"
		},
		{
			"inputs": [
				{
					"internalType": "address",
					"name": "",
					"type": "address"
				}
			],
			"name": "stakeNo",
			"outputs": [
				{
					"internalType": "uint256",
					"name": "",
					"type": "uint256"
				}
			],
			"stateMutability": "view",
			"type": "function"
		},
		{
			"inputs": [],
			"name": "stakeNoSide",
			"outputs": [],
			"stateMutability": "payable",
			"type": "function"
		},
		{
			"inputs": [
				{
					"internalType": "address",
					"name": "",
					"type": "address"
				}
			],
			"name": "stakeYes",
			"outputs": [
				{
					"internalType": "uint256",
					"name": "",
					"type": "uint256"
				}
			],
			"stateMutability": "view",
			"type": "function"
		},
		{
			"inputs": [],
			"name": "stakeYesSide",
			"outputs": [],
			"stateMutability": "payable",
			"type": "function"
		},
		{
			"inputs": [],
			"name": "totalNo",
			"outputs": [
				{
					"internalType": "uint256",
					"name": "",
					"type": "uint256"
				}
			],
			"stateMutability": "view",
			"type": "function"
		},
		{
			"inputs": [],
			"name": "totalYes",
			"outputs": [
				{
					"internalType": "uint256",
					"name": "",
					"type": "uint256"
				}
			],
			"stateMutability": "view",
			"type": "function"
		},
		{
			"stateMutability": "payable",
			"type": "receive"
		}
	]
}